:020000041000EA
:10000000000002301928001071260010752600101B
:10001000792600107D26001081260010852600100C
:100020000000000000000000000000005903001064
:1000300089260010000000002F0400103F0400106B
:100040008D2600109126001095260010992600108C
:100050009D260010A12600100000000000000000F6
:1000600000000000A5260010A9260010AD260010F3
:10007000B126001000000000B5260010B9260010BF
:10008000BD2600100000000000000000000000007D
:100090000000000000000000000000000000000060
:1000A0000000000000000000C1260010C52600105E
:1000B000C9260010CD26001000000000000000003E
:1000C000D1260010A5230010F9230010D52600101A
:1000D000D9260010DD260010E1260010E5260010CC
:1000E000E9260010ED260010F1260010F52600107C
:1000F000F9260010FD26001001270010052700102A
:10010000092700100D2700101127001015270010D7
:10011000192700101D270010212700102527001087
:10012000292700100000000000000000000000006F
:1001300000000000000000000000000000000000BF
:1001400000000000000000000000000000000000AF
:10015000000000002D270010312700103527001067
:10016000392700103D2700104127001045270010B7
:10017000492700104D270010512700105527001067
:10018000592700105D270010612700106527001017
:10019000692700106D2700107127001075270010C7
:1001A000792700107D270010812700108527001077
:1001B000892700108D270010912700109527001027
:1001C000992700109D270010A1270010A5270010D7
:1001D000A9270010AD270010B1270010B527001087
:1001E000B9270010BD270010C1270010C527001037
:1001F000C9270010CD270010D1270010D5270010E7
:10020000D9270010DD270010E1270010E527001096
:10021000E9270010ED270010F1270010F527001046
:10022000F9270010FD2700100128001005280010F4
:10023000092800100D2800101128001015280010A2
:100240000000000000000000000000000348044B14
:10025000834202D0034B03B118477047400100307E
:100260004001003000000000064B0749C91A891000
:1002700048BF0131491003D0044B0BB10148184766
:10028000704700BF40010030400100300000000016
:1002900010B5064C237843B9FFF7D8FF044B13B1D0
:1002A0000448AFF300800123237010BD40010030EB
:1002B00000000000CC3A001008B5054B1BB1054901
:1002C0000548AFF30080BDE80840FFF7CDBF00BF91
:1002D0000000000044010030CC3A0010A3F5803A41
:1002E000704700BF174B002B08BF134B9D46FFF70D
:1002F000F5FF00218B460F461348144A121A03F0EB
:100300001BF90E4B002B00D098470D4B002B00D053
:1003100098470020002104000D000D48002802D05D
:100320000C48AFF3008002F071FB2000290002F0BE
:1003300051FB02F059FB00BF000008000000000064
:1003400021090010000002304001003028880030F0
:1003500000000000000000001EF0040F0CBFEFF3CF
:100360000880EFF30980816911F8021C002950D13F
:1003700001B590E80F10E047BDE80050CCF8000050
:10038000334B93E80600914208BF70471A6041B9A9
:100390001EF0100F2CD12F4B186820F001001860B0
:1003A00026E0ACF1200C1EF0100F08BFACF1400CA1
:1003B000C1F838C081F822E006B4084601F034FCE8
:1003C00006BC50B90C46012000F068FA204B5A6870
:1003D0001A60002194F922E0DAE791F922E0D1F8DD
:1003E00038C01EF0100F08BFACEC108A8CE8F00F7C
:1003F0001400A06B216B81F30B8894F922E01EF0AE
:10040000100F08BFB0EC108AB0E8F00F80F3098835
:100410007047114A13689942FAD801B552F821C0C1
:100420000FC8E047BDE80050CCF80000704701B5A8
:1004300000F04EFFBDE80140EFF3098CA0E701B5E5
:1004400000F006FFBDE80140EFF3098C98E70000DB
:100450001400003034EF00E0E0390010022801D829
:100460000020704708B503F043F8582203464FF0C8
:10047000FF301A6008BD00BF012870B50DD00228FA
:1004800008D018B103F034F8582303604FF0FF345C
:10049000204670BD0024204670BD16466AB10D4648
:1004A000002402E00134A642F2D015F8010B02F05C
:1004B000ADF80130F6D1204670BD1446E8E700BF24
:1004C00038B5044628B1441E012C0AD84FF0FF303D
:1004D00038BD0D4602F0B2F8031E07DB2B70012079
:1004E00038BD03F005F858230360EFE7204638BD18
:1004F00002288CBF00200120704700BF022802D8CC
:100500004FF0FF30704708B502F0F2FF5823036048
:100510004FF0FF3008BD00BF022808B504D84FF4E3
:10052000005300204B6008BD02F0E2FF5822034652
:100530004FF0FF301A6008BDFEE700BF044B054ACC
:100540001868002808BF104601441960704700BFB2
:100550005C0100302888003010B588B1044601469F
:10056000132001F0FDFA20B1204600F061F80020D0
:1005700010BD4FF0FF3000F057F84FF0FF3010BDC6
:100580006FF0030000F050F86FF0030010BD00BFE3
:1005900010B5044600F04AF8EFF3058353B9EFF3C2
:1005A00010833BB9EFF3118323B92046DFF814C061
:1005B00000DF10BD6FF0050000F036F86FF00500A9
:1005C00010BD00BF59050010704700BF704700BF45
:1005D000704700BF704700BF704700BF704700BF43
:1005E000704700BF704700BF704700BF704700BF33
:1005F000704700BF704700BF704700BF704700BF23
:10060000704700BF704700BF704700BF704700BF12
:10061000704700BF704700BF704700BF704700BF02
:10062000704700BF704700BF704700BF704700BFF2
:10063000704700BF704700BF704700BF704700BFE2
:10064000704700BF704700BF704700BF704700BFD2
:10065000704700BF704700BF704700BF704700BFC2
:10066000704700BF704700BF704700BF704700BFB2
:10067000704700BF704700BF704700BF704700BFA2
:10068000704700BF704700BFF8B5574D297A012960
:1006900000F08280002940F0A080544C9C2205F19B
:1006A000080002F049FFE168E66A228AA368E9656A
:1006B0003046216BA5F854202B6400F033F908B1C3
:1006C000C5F88060D4E90571384600F02BF90028A0
:1006D00078D0D4E9076130466F6700F023F900282D
:1006E00065D0D4E909713846AE6700F01BF90028DF
:1006F00056D0666BEF673EB1D6E9022330463168CB
:1007000000F09EF9C5F88460A66B3EB1D6E90223DD
:100710003046316800F094F9C5F88860E66B3EB168
:10072000D6E902233046316800F08AF9C5F88C60BA
:10073000266C3EB1D6E902233046316800F080F9DC
:10074000C5F89060666C3EB1D6E902233046316848
:1007500000F076F9C5F89460A66C3EB1D6E90223A4
:100760003046316800F06CF9C5F89860E66C3EB12F
:10077000D6E902233046316800F062F9C5F89C6082
:10078000246D3CB1D4E902232046216800F058F9D9
:10079000C5F8A04001232B72FFF726FF0020F8BD0B
:1007A000D5F88070666BEF67002EA5D1ACE7D5F861
:1007B0008060D4E909713846AE6700F0B3F80028CC
:1007C00097D1EDE7D5F88070D4E9076130466F67BF
:1007D00000F0A8F8002884D1E9E74FF0FF30FFF7D8
:1007E000FFFE4FF0FF30F8BD000000307039001000
:1007F00038B5244C237A012B3ED101F0E9FAA0B39D
:10080000FF23214A82F8223092F8223063F0FF035E
:10081000DB4325D0B3FA83F3D268C3F12003C2F3DC
:10082000022293421FD9FE22174D02FA03F3174802
:10083000DBB2EB771649406801F0A4FB0546A0B98E
:1008400001F0DCFB206101F0C1FB124800F024FE46
:1008500000F05AFF02232372FFF7CAFE284638BD74
:10086000D268C2F30222531CDDE74FF0FF30FFF7DE
:10087000B7FE4FF0FF35F1E76FF00700FFF7B0FE6E
:10088000F7E700BF0000003000ED00E07039001015
:100890003F0400101C000030704700BF38B504460C
:1008A0000D46FFF7A7FE29462046BDE8384001F077
:1008B000DDBE00BF08B5FFF7EFFFFFF793FEEFF3D4
:1008C00005834BB9EFF3108333B9EFF311831BB9F1
:1008D000DFF814C000DF08BD6FF00500FFF780FEF1
:1008E0006FF0050008BD00BF8906001008B5FFF7CE
:1008F0007DFEEFF305834BB9EFF3108333B9EFF3CC
:1009000011831BB9DFF814C000DF08BD6FF00500CC
:10091000FFF766FE6FF0050008BD00BFF10700108D
:10092000FFF7C8BF70B503460C4620B140EA01028C
:1009300012F0070506D0184600222146FFF744FEB4
:10094000002070BD1729F6D91026A1F1080422183D
:100950001960826046600551846801226660C56046
:10096000FFF732FE012070BDF8B5C0B3B9B3032A5A
:1009700035D801F10F06846826F0070600F1080C4F
:1009800003E02368A44653B31C46DCF80450A4EBF0
:100990000C0325F0030EA3EB0E039E42F1D803686F
:1009A0000344A3F1080E4368DEF804703344BB42ED
:1009B000436084BFCEF80430DCF804501643A5B180
:1009C00025F003054CF8054065446E6005F1080408
:1009D000CCF800502346FFF7F9FD2046F8BD00246F
:1009E0000023FFF7F3FD2046F8BDCCF804600CF1BE
:1009F0000804EFE738B5D8B1D1B10024A1F1080C53
:100A000000F1080303E01A681C468AB113466345E7
:100A1000F9D15D68426825F0030CA2EB0C0242603C
:100A20005CB11B6823600122FFF7D2FD012038BDB5
:100A30000022FFF7CDFD002038BD5C60F3E700BF6A
:100A4000844650B3F8B50C4619B315461AB31E4682
:100A500023B30027CCF80010C0E90223CCF81430EF
:100A6000476002FB01F703EB070EC0F810E0FFF749
:100A7000B1FD013C09D0314644F001E0084629446B
:100A800001600FF005C87F1B3E4400230120336046
:100A9000F8BD0846F8BD1046F8BD70471846F8BDC9
:100AA00070B50446D8B100F1140353E8001F11B922
:100AB000BFF32F8F04E00A6843E8002000B1F4E799
:100AC0000D4639B1231D53E8002F501C43E80006A2
:100AD00006B1F8E72046FFF77FFD284670BD0146C6
:100AE000FFF77AFD2546F8E7F8B503460C4608B34C
:100AF000C2688A421ED802698A421BD900F11402D8
:100B000015680D60BFF35F8F52E8005F0E68AE425C
:100B1000F6D142E8001707B1F2E7043353E8002F9B
:100B2000541E43E8004505B1F8E70022FFF756FDE3
:100B30000020F8BD18466FF003022146FFF74EFD76
:100B40006FF00300F8BD00BF036B10B4FBB10024CD
:100B500091F803C003E05A681C469AB11346DA784C
:100B60006245F8D3C1E90134996074B90163283052
:100B700050E8003F5A1C40E8002101B1F8E75DF859
:100B8000044B7047C1E90123C1626160EFE74B602C
:100B90008B60C1620163EAE710B400F1280353E8F7
:100BA000002F12B9BFF32F8F04E0511E43E8001449
:100BB00004B1F4E792B1C06A80B1012101E080681C
:100BC00060B1821CD2E84F3FC2E8441F04B1F9E78C
:100BD000DBB2002BF3D15DF8044B704700205DF8C9
:100BE000044B70472DE9F041D0E9011586780446A1
:100BF000002E38D0C668002945D08D60002D45D024
:100C00006960002506F10C07214638462570FFF77C
:100C10006BFFB368ABB33846FFF742FF044680B3BF
:100C2000304600F039FC07462A46294600F044FFCA
:100C3000384600F05FFD0746D7F80480726A4146E7
:100C400004F10C0002F04DFBF923A5702370BB6882
:100C500021463046E370FFF777FF41463046BDE856
:100C6000F041FFF703BDAB68284613B15B78832BD7
:100C70000ED0FFF7FBFC21462846BDE8F041FFF708
:100C800063BFBDE8F081F562002DB9D13163B8E7EB
:100C9000FFF7ECFC284600F0FFFB324631460646E3
:100CA00000F00AFF304600F025FD436806466A6AF8
:100CB000184604F10C0102F014FBB26803460AB1B5
:100CC000E178117019462846FFF7DAFC00232370FB
:100CD000214605F10C00BDE8F041FFF705BF00BF5C
:100CE0002DE9F84F002847D00F46002944D014467C
:100CF000B1FA81F3B0FA80F213441F2B06463BDDB4
:100D000001F1030828F0030808F10C0808FB00FBB8
:100D1000002C38D0D4E900A2D4E90431D202A5686D
:100D200000F18580E268002D65D0342A71D1002B56
:100D300038D09A0767D18B4565D80024DFF8109129
:100D40003146AC70FA2600244246C5F804A06F6212
:100D500005F10C002E70EC70AC60AC62EC622C63A0
:100D6000FFF76EFE394B69682846C9F87030FFF707
:100D700073FC2846BDE8F88F6FF003010020FFF7F1
:100D800069FC0025F5E7A246DFF8C490D9F8A00079
:100D9000002844D0FFF784FE054635B3ACB12346A6
:100DA0000124CDE779BBDFF8A8901A465946D9F857
:100DB0007C00FFF7D9FD0346B8B1022418465A4615
:100DC000002102F0B9FB0346BAE722465946D9F89A
:100DD0007C00FFF7C9FD032403460028EED1D9F8B3
:100DE000A000294668B3FFF77FFE6FF004010020E2
:100DF000FFF730FCC5E762B9FBB1980703D18B451B
:100E000001D81C46C0E76FF00A010020FFF722FC62
:100E1000B7E76FF009010020FFF71CFCB1E70122E2
:100E20003421D9F88000FFF79FFD0546B5E76FF044
:100E300006010020FFF70EFCA3E70029E3D10C46D2
:100E4000A2E7D9F88000FFF7D5FDCEE7E50B00104B
:100E5000000000302DE9F041044600283BD09846C0
:100E60000378FA2B37D10E46A9B38568174615B11A
:100E70006B78832B40D004F10C00FFF711FE054680
:100E8000A0B13146626A0C3002F02BFAF92200233D
:100E900029462046EF702A70AB70FFF755FE3146A9
:100EA0002046FFF7E3FB0020BDE8F081B8F1000F1A
:100EB0001AD0204631464246FFF7D2FB41469320E6
:100EC00000F04EFEA8B31D4B2046596900F0CAFA47
:100ED0006FF00100E8E720466FF00301FFF7BAFB6F
:100EE0006FF00300BDE8F08120463146FFF7C0FBFC
:100EF0006FF00200BDE8F081FFF7B8FB204600F07C
:100F0000CBFA05460122002100F0D6FD284600F06C
:100F1000F1FB43680546626A1846314602F0E1F982
:100F2000AA68034602B1177019462046FFF7A8FBCE
:100F3000B9E72046FFF796FBCAE700BF0000003084
:100F40002DE9F041044600286AD01F460378FA2BA9
:100F500066D10E46002963D09046FFF71DFE054678
:100F600000284AD0D0E90131002B62D099600029D5
:100F700062D04B603046626A05F10C0102F0B1F9B3
:100F8000B8F1000F02D0EB7888F800300027314626
:100F9000204604F10C06FFF773FB294630462F70FC
:100FA000FFF7A2FDA3682BB33046FFF779FD054696
:100FB00000B3204600F070FA06460122394600F0E0
:100FC0007BFD304600F096FB0646D6F80480626A48
:100FD000414605F10C0002F084F9F923AF702B7043
:100FE000B36829462046EB70FFF7AEFD4146204628
:100FF000FFF73CFB0020BDE8F081FFB12046314601
:101000003A46FFF739FB3946832000F0A9FDE8B1E5
:10101000104B2046596900F025FA6FF00100EAE70D
:1010200020466FF00301FFF715FB6FF00300BDE8EA
:10103000F081E16200299CD123639BE72046314681
:10104000FFF720FB6FF00200BDE8F0812046FFF7BC
:1010500015FBE2E70000003008B5064B0821D3E994
:101060001A20FFF73DFEB0FA80F3034A5B09D06413
:10107000584208BD70390010000000302DE9F041E1
:1010800006460F4690461C46FFF7E8FAEFF3058345
:1010900013B9EFF310830BB36EB33378FA2B2AD165
:1010A0004FB344BB06F10C00FFF7FAFC054658B3FA
:1010B0003946726A0C3002F014F9F92328462B7075
:1010C000C5E90176AC7085F8038000F055F930462B
:1010D0003946FFF7C9FA2046BDE8F081EFF31183E6
:1010E000002BD9D13046394642462346DFF828C086
:1010F00000DFBDE8F08130466FF00301FFF7AAFA88
:101100006FF00300BDE8F08130463946FFF7B0FAD2
:101110006FF00200E0E700BF550E0010F8B504467E
:101120000D4617461E46FFF7A5FAEFF3058313B9E0
:10113000EFF31083EBB144B32378FA2B25D125B319
:101140001EBB2046FFF728FD064630B300F10C0118
:10115000626A284602F0C5F80FB1F3783B7030465A
:10116000F46000F009F920462946FFF789FA0020CB
:10117000F8BDEFF31183002BDDD1204629463A4616
:101180003346DFF824C000DFF8BD20466FF00301CE
:10119000FFF760FA6FF00300F8BD20462946FFF71D
:1011A00071FA6FF00200F8BD410F001070B32DE925
:1011B000F041044600274FF001082546EB786469AA
:1011C0001B0703D4002CF8D1BDE8F081002128468C
:1011D0002F76FFF739FAAB68002BF3D0284600F0E2
:1011E0005BF900220646114600F066FCF36A012115
:1011F00028462F61EE606B6103B11D61F56285F8D1
:101200001880FFF71FFA002CD7D1DDE7704700BF29
:10121000C3789B0717D5C06890F921C0C36ADA78F4
:10122000920709D59A688A4208BF8A6822B192F962
:1012300020209445B8BF94465B69002BEFD190F90C
:101240002030634500D1704780F820C000F02EB9EF
:1012500038B51E4C00F0CEFEE3680133E36000F0C9
:101260009FF9002000F060FA236D03B19847236CCA
:101270005BB1A269E06BD169904207D0002918BF29
:101280000B46E263013BD3610BB138BDE1B9237A70
:10129000022BFAD1656A002DF7D0E36B95F9202077
:1012A00093F920309A42F0D1284600F029F9E06BFA
:1012B00000F030F9E06BFFF7ABF9284600F024FAB4
:1012C000236CE563EB6138BD0B46DBE700000030C3
:1012D00070B5284E06F1560406F15A05B6F85420AA
:1012E000D4E85F3F13B9BFF32F8F04E0591EC4E861
:1012F000501F00B1F4E79BB2002B36D0D5E85F3F1A
:10130000591C8A4200D80021C5E8501F00B1F5E7FA
:10131000F26D9BB252F8230038B30378F13B082BEF
:10132000DCD801A252F823F065130010DD12001082
:101330005F130010DD120010DD12001059130010B1
:1013400053130010DD1200104D130010336F984737
:10135000C4E7F36E9847C1E7B36E9847BEE7736E74
:101360009847BBE7336E9847B8E70020BDE8704068
:1013700000F0DAB9000000301A4A70B40146B2F841
:10138000543002F15604D4E85F0F834202D8BFF311
:101390002F8F04E0451CC4E8565F06B1F3E780B226
:1013A000834203D870BC0220FFF778BA02F15804D8
:1013B000D4E85F0F451CAB4200D80025C4E8565F57
:1013C00006B1F5E7D46D83B244F82310537A1BB10C
:1013D0000123937270BC70474FF0805270BC024B77
:1013E0005A6070470000003000ED00E0930710B431
:1013F00002F0010415D400F12803E4B153E8000F12
:1014000000EA01028A4203D0BFF32F8F002005E0DB
:1014100020EA010243E8002404B1EFE75DF8044B41
:101420007047806A01EA0003B4B1994218BF0020F6
:101430005DF8044B704753E8000F084203D1BFF337
:101440002F8F002005E020EA010243E8002404B1C8
:10145000F1E75DF8044B7047002B08BF00205DF8F2
:10146000044B7047836891F920C023B910E09A6853
:1014700018464AB1134693F920206245F7DAC1E9CC
:1014800002308160D9607047C1E9022399607047DA
:10149000C1E90230816070470346806882689A60C3
:1014A00002B1D3600023C360704700BF034610B988
:1014B00021E0DB68D3B11A78F12AFAD0C2681AB1F8
:1014C0008168916001B1CA609A6890F920C022B920
:1014D00012E09168134651B10A4692F92010614515
:1014E000F7DAC0E902239860D06070477047C0E91E
:1014F0000212906070477047C0E9022398607047FD
:10150000C3682BB182689A6002B1D3600023C360C4
:10151000704700BF01230F4A4370536A90F920C0FF
:1015200002F11C0123B910E09A6819464AB113462A
:1015300093F920206245F7DAC0E902318860D8606B
:101540007047C0E9022398607047C0E902315062D9
:10155000704700BF00000030C169D0E90432B1F12A
:10156000FF3F0CD023B15A61DA6911444269D96155
:101570007AB11361002100234161C36170470BB14F
:101580005A614269002AF4D1044A13630023C361FB
:101590007047024AD3620023C361704700000030E5
:1015A000F0B5534D83B0EC6A002C44D0E369013BA5
:1015B000E361002B3FD1012705F11C066378632B03
:1015C0007CD04CD8432B00F0848036D8132B66D0C7
:1015D000332B02D12046FFF723F894F82230A26B78
:1015E00013F0100F14BF202360232046D158FFF7BB
:1015F0000DF8E3681BB1A2689A6002B1D36067700E
:101600006B6A314694F920002BB96DE09A6819464F
:10161000002A40D0134693F920208242F6DAC4E92A
:1016200002318C60DC60246924B1E369002BC5D0F1
:1016300000236361EC6203B0F0BD532BCDD123785E
:101640002046F12B03D1C0680378F12BFBD0214653
:101650000190FFF7DDFD0198FEF7F2FFBDE7832B58
:1016600021D0932B0AD123782046F12B03D1C068D7
:101670000378F12BFBD0FEF7F5FFAEE7732BACD16F
:1016800023782046F12B03D1C0680378F12BFBD0DF
:10169000FEF7DEFFA1E7C4E902239C60C3E7204612
:1016A000FEF7C8FF99E723782046F12B03D1C068E5
:1016B0000378F12BFBD0FEF7E1FF8EE7237820467D
:1016C000F12B03D1C0680378F12BFBD0FEF7BEFFEE
:1016D00083E723782046F12B03D1C0680378F12BF0
:1016E000FBD0FEF7ABFF78E7C4E902366C629AE7FD
:1016F0000000003090F82230806B13F0100F14BF00
:1017000020236023184470470223C2784370520795
:1017100058BF032383F31488BFF36F8F014B986185
:10172000FEF778BF0000003070B5434D2B7A696931
:10173000F0B1022B04464FF0010390F920C003D111
:1017400091F9200060454DDB63706B6A002B60D01F
:101750003A4904E09A681946002A52D0134693F990
:1017600020206245F6DAC4E902318C60DC6070BD8D
:10177000022B6C6AFBD1002CF9D091F9200094F96E
:1017800020308342F3DDE368002B47D0A2689A60E3
:1017900002B1D360002601226B6AE6604A70002B1A
:1017A00044D0264E03E09A681E4672B3134693F95E
:1017B00020208242F7DCC1E90236B160D9600846D8
:1017C000FEF726FF0223E2786370520758BF032317
:1017D00083F31488BFF36F8F2046AC61BDE870407F
:1017E000FEF718BF4B706B6A05F11C0623B919E0B0
:1017F0009A681E464AB1134693F920208242F7DCCC
:10180000D9E7C4E902239C6070BDC1E90223996055
:10181000D5E70A4AC4E902326C6270BD0122234650
:101820004A70BEE7C1E902366962C8E7034AC1E906
:1018300002326962C3E700BF000000301C000030C4
:101840002DE9F04F85B0002800F003810646894657
:10185000002A00F09680D2E900A8D2E9047508F0C9
:10186000060106299468936900F0F38018F4801F3C
:1018700040F0F580D268002C00F09780502A40F0AC
:1018800097801FB178076BD1002D69D0002B00F035
:1018900087805A1E372A00F2F380002900F08E80DC
:1018A000002D64D015F007005AD17D4AA5F14801FA
:1018B000914255D8002C00F08380002F00F0AE80BC
:1018C0007849DFF8F0B1A5F14002A07040F2F110C4
:1018D0003A44A26300222080FD205BB2C4E90222C8
:1018E000C4E90422C4E906226262A262E26263F3EE
:1018F000070263F30F2209686B4B08F00F08C4E975
:101900000C7584F80380C4F804A0E6636084228424
:101910003B604B0707D5AD08113D04D0CC21AA0090
:10192000381D01F009FEA36B38220021184601F092
:1019300003FE4FF080750346C0E90896DD635B4DFA
:101940005B499D632046CBF860105246E16BFEF781
:1019500057FE2046FFF7E8FE204605B0BDE8F08FB1
:101960006FF00B010020FEF747FE0024F4E73CB3C4
:10197000002F39D06FF03F0228464A49DFF834B1D2
:10198000A3E7924617461823154690464549144644
:101990000968CA074CBF48F0040848F002087FE70E
:1019A000182300297FF47CAF08E0002A3FF469AFD8
:1019B0006FF009010020FEF71FFED6E72246E5E79B
:1019C000DFF8F0B00193DBF8880000284DD0FFF776
:1019D00067F80446019B002C35D0002F56D001201B
:1019E0003049A5F1400270E7DFF8C8B001972D49F2
:1019F000DBF884004D6D029198B10393FFF750F826
:101A00000746C0B1019B43F010030193DDE90213C7
:101A1000019A42F00200A5F1400256E7DFF894B0C7
:101A2000019700222946DBF874000293FEF79CFF21
:101A3000029B074610BB019B2BB1DBF888002146B7
:101A400048B3FFF751F86FF004010020FEF7D4FD12
:101A50008BE76FF003010020FEF7CEFD85E76FF006
:101A600006010020FEF7C8FD7FE701225021DBF8C8
:101A70008000FEF779FF019B0446ACE70949C7E700
:101A80006FF00C010020FEF7B7FD6EE70122019216
:101A9000002DACD0C5E7DBF88000FEF7ABFFD2E746
:101AA000B7FFFF7F70390010A52E5AE2711E00109B
:101AB000291B00100000003070B5044615460E4684
:101AC000FEF7A4FD94F82230A26B13F0100F14BFA0
:101AD000202360232046D650FFF73EFD1DB1BDE810
:101AE0007040FFF721BE01230E4A6370536A94F9D8
:101AF000200002F11C013BB9C4E90231546270BDFF
:101B00009A6819464AB1134693F920208242F7DABF
:101B1000C4E902318C60DC6070BDC4E902239C60C2
:101B200070BD00BF000000304378332B00D07047F9
:101B300070B5416A90F823200446FFF757FC05462C
:101B400000B970BD014600222046FFF7B5FF2346CD
:101B50002A4694F82310606ABDE87040FEF762BD23
:101B6000F8B52F4D2B7A022B39D10646686A00282A
:101B700034D00C466F693846FEF746FD611C7E7016
:101B80002FD0EB6A002033B944E019691846A41A33
:101B9000002933D00B46DA699442F6D2C7E9043003
:101BA000FC6100282FD00761DA695F61121BDA61DE
:101BB000686A83686B620BB11A4ADA6002230021FB
:101BC000C27843705207C16058BF032383F314885F
:101BD000BFF36F8FA861FEF71DFD0120F8BD002047
:101BE000F8BD2B6B8BB11A461B69002BFBD14FF054
:101BF000FF31C7E90432F9611761D9E7C7E9041376
:101C0000FC611F61D4E7EF62CEE7FC613B617B6161
:101C10002F63CDE7FC613B617B61EF62C8E700BFEA
:101C2000000000301C000030036B826B934206D230
:101C30001868044BC01AB0FA80F0400970470020C1
:101C4000704700BFA52E5AE238B5846905464CB3EB
:101C500000212046FEF7DAFC94F82230002113F030
:101C6000100F14BF20236023A26B2046D150FFF732
:101C700073FC0123134A6370536A94F9200002F144
:101C80001C0123B91AE09A6819469AB1134693F9D0
:101C900020208242F7DAC4E902318C60DC60A86956
:101CA000FEF7B0FC6B78232B00D038BD0022AB6868
:101CB0009A6138BDC4E902239C60F0E7C4E90231AF
:101CC0005462ECE700000030704700BF10B50446D6
:101CD000FFF7FAFF0022A37822809A0709D513F0B4
:101CE000100F216B0E4B10D0D3F88400FEF7FCFED2
:101CF000A378DB0708D50A4B2146D3F8880048B102
:101D0000BDE81040FEF7F0BE10BD586FFEF772FE42
:101D1000A378EEE7D3F88000BDE81040FEF76ABE76
:101D20000000003038B5284C237A022B3BD1636A7F
:101D3000002B38D06569E86AFFF738FA2846FFF7C4
:101D400083FF606A8368636213B104F11C02DA6086
:101D500000210223C278C1605107437058BF03239A
:101D600083F31488BFF36F8FA061FEF753FCEFF38A
:101D700009832A6BAB639A4216D2144B12689A42BB
:101D800012D100236361EA78D20714D504226A7065
:101D9000EB60636BAB6003B1DD6028466563BDE853
:101DA0003840FEF73BBC38BDA3692946012063617A
:101DB000FEF774FDE5E72846FFF788FF2846BDE8F3
:101DC0003840FEF72BBC00BF00000030A52E5AE2C1
:101DD00038B50D4C0021A26D0C48FFF731FD0C4DBC
:101DE000636EA86273B1984708B1002038BDE26DF8
:101DF000E96C206EFFF724FD0346003818BF012070
:101E0000AB6438BD012038BD703900106926001060
:101E10000000003070B506460D461446FEF7EEFB96
:101E2000EFF3058363B9EFF310834BB9EFF311833D
:101E300033B9304629462246DFF814C000DF70BDB2
:101E40006FF005010020FEF7D7FB002070BD00BF3A
:101E50004118001008B5FEF7DFFBDFF810C000DF07
:101E60004FF0FF310020FEF7C7FBFEE7251D0010F5
:101E700008B58847FFF7EEFF70B4114E0025736C6C
:101E80002BB912E0DC681D46891AA4B123461A69F1
:101E90008A42F7D901611A698560521AC3601A61D2
:101EA00098602DB1E86070BC704701618360C360C9
:101EB000706470BC7047C0E902340161F2E700BF92
:101EC000000000302DE9F0411B4D6C6CE4B123693A
:101ED0006E69013B01272361ABB9E2680AB1A368CF
:101EE000936000236A64E86C1A4604F11801FFF756
:101EF000C5F858B9E378DB0719D467706C6C14B176
:101F00002369002BE9D06E61BDE8F081AB69214601
:101F10000320D5F814806B61FEF7C0FC6B69002BC1
:101F2000E8D1E378B04508BF0026DB07E5D52046B9
:101F30006169FFF7A1FFE1E70000003008B5FFF796
:101F40008BF818B9034B044A1A6508BD4FF0FF30EF
:101F500008BD00BF00000030C51E0010044600B5DB
:101F600083B04FF0FF33002269462046FFF7D6F8D2
:101F70000028F6D1DDE90001FEF75EFBDDE9003067
:101F80009847EEE7C8B10E4B1B68B3FBF0F3013B7B
:101F9000B3F1807F11D230B44FF0E021002206254A
:101FA0004FF0FF0C0748084C80F823C00D614B61CF
:101FB0008A612270104630BC70474FF0FF30704786
:101FC000D800003000ED00E0C8860030074B1A78DA
:101FD0002AB100204FF08061054A187051604FF01F
:101FE000E022136943F0010313617047C886003093
:101FF00000ED00E04FF0E0231B6970474FF0FF3029
:10200000704700BF0020054B82B01B689AB262F394
:102010000F001B0C63F31F4002B07047843A00109E
:102020000120704701460122024B00205960DA72FC
:10203000704700BFB0000030074BDA7A012A07D1A1
:102040009B7A022B0CBF6FF003004FF0FF307047FC
:102050004FF0FF30704700BFB0000030014B5869AF
:10206000704700BFB0000030014B186A704700BFD6
:10207000B0000030054B9869DB68003818BF0120BC
:10208000003B18BF012343EA40007047B000003016
:102090006FF00300704700BF00207047324AD37AC8
:1020A000012B5DD1937A022B5AD1C3B2013B10B5FB
:1020B0000446182B48D8DFE803F00D474747474749
:1020C00047474747474747474747474747471F2AE5
:1020D00047333A00106800F0C7F900283DD114F4E6
:1020E000E06F31D114F4405F34D114F4404F14BF89
:1020F0006FF00A00002010BD11B3012927D110682C
:1021000000F032FA0028EAD04FF0FF3010BD99B14C
:1021100001291CD1106800F041FA0028DFD0F3E754
:10212000002300200021D360C2E90401D7E7002387
:102130009361D3611362D2E7106800F03DFACEE7F5
:10214000106800F01FFACAE76FF0030010BD6FF0CF
:10215000040010BD6FF0090010BD6FF0070010BD46
:102160004FF0FF30704700BFB000003070B5134C27
:1021700082B0E37A012B1BD1A37A022B18D1064639
:10218000C8B10D46B9B100238DF8073004E02068CE
:102190000DF1070100F080F9206800F0C5F9012871
:1021A000F5D000231846C4E90665236202B070BD6D
:1021B0004FF0FF30FAE76FF00400F7E7B0000030AF
:1021C0000F4B93F80BC0BCF1010F13D10246987A64
:1021D00002280FD18AB181B110B50024C3E90321CF
:1021E0005C611868117800F061F9001B18BF0120CC
:1021F000404210BD4FF0FF3070476FF00400704751
:10220000B000003070B5454CE57A012D04D10128AD
:1022100005D0022839D028B14FF0FF3070BD6FF0E3
:10222000030070BD206800F073F9206800F056F9D3
:10223000206800F0C1F9206800F0A4F994F9083092
:10224000002B0CDB36495A0903F01F0305FA03F390
:10225000203241F82230BFF34F8FBFF36F8F94F9D4
:102260000930002B0DDB01212D485A0903F01F0313
:10227000203201FA03F340F82230BFF34F8FBFF34F
:102280006F8F0023A372002070BDA37A022BFAD0B7
:10229000244B2068196800F0CFF894F90830002B1F
:1022A0002EDB5A0994F90910920003F01F0302F182
:1022B000604205FA03F302F561420029C2F8803159
:1022C00008DB4809164E01F01F018D4000F1600146
:1022D00046F82150136094F90930002B07DB0125E3
:1022E00003F01F0295405B090D4A42F82350206815
:1022F00000F000F9206800F0E3F80223A372C2E7BF
:1023000094F90920002AF2DB5309054902F01F0263
:10231000954003F1600241F82250E5E7B00000303B
:1023200000E100E0D400003038B51C4CE57A012D06
:1023300030D1206800F0ECF8206800F0CFF8206879
:1023400000F03AF9206800F01DF994F90830002BEC
:102350000CDB5A09124903F01F039D4002F12003D0
:1023600041F82350BFF34F8FBFF36F8F94F90930BB
:10237000002B0DDB01210A485A0903F01F0320320C
:1023800001FA03F340F82230BFF34F8FBFF36F8F92
:102390000023A3720020E072606038BDB0000030FE
:1023A00000E100E010B5134C0021206882B000F07D
:1023B000C7F8A369B3B1216A2068194400F06CF82A
:1023C000D4E9072301339342236201D002B010BD48
:1023D00000226368A261002BF8D0022002B0BDE8A1
:1023E0001040184720680DF1070100F055F802B0C1
:1023F00010BD00BFB000003010B50E4C01212068A8
:1024000000F09EF8E2689AB1D4E9041301338B42DC
:10241000636107D100226368E2604BB1BDE8104000
:10242000012018472068D15CBDE8104000F03EB89C
:1024300010BD00BFB0000030A1B1D0E90032586833
:1024400070B4B1FBF0F6032501241B68C2E901104A
:102450001E619968002021F003019960DD6014601D
:1024600070BC70470120704789B142681368DB0770
:102470000FD55368B3FBF1F30F2B08D910B40468E0
:1024800000202468916023615DF8044B70470220AE
:1024900070470320704700BF03681B685A689207A3
:1024A00043BF1B6800200B700420704703681B6843
:1024B000586810F001000CBF19600420704700BF7D
:1024C000D0E900231B681268DB0705D5936800205C
:1024D00043F00403936070470320704743681B6810
:1024E000DB0705D503681A68936823F0040393603B
:1024F000704700BFD0E900231B681268DB0705D5D1
:102500009368002043F008039360704703207047EE
:1025100043681B68DB0705D503681A68936823F0D6
:1025200008039360704700BF43680246186810F0C4
:10253000010004D013681B68586800F0020070475F
:1025400043681B68DB0706D5036801291B6809D0AF
:10255000022904D001B170470222DA6070470322D9
:10256000DA607047D9607047D0E900231B681268B1
:10257000DB0705D59368002043F0010393607047A3
:102580000320704743681B68DB0705D503681A689A
:10259000936823F001039360704700BFD0E90023E4
:1025A0001B681268DB0705D59368002043F002031F
:1025B000936070470320704743681B68DB0705D5AD
:1025C00003681A68936823F002039360704700BFA2
:1025D00010B50D4C0020A368984788B902202369E4
:1025E000984768B94FF4E1310120A46AA04738B98F
:1025F00001211620A047003818BF0120404210BD1D
:102600004FF0FF3010BD00BF4C3A001030B505460A
:10261000094C83B00121636901A88DF804509847E3
:1026200030B9246AA0470128FCD1284603B030BD48
:102630004FF0FF35F9E700BF4C3A001010B5094CD8
:1026400082B00121A36901A8984738B9646AA047FC
:102650000128FCD19DF8040002B010BD4FF0FF30FE
:10266000FAE700BF4C3A0010FEE700BFFEE700BFEC
:10267000FEE700BFFEE700BFFEE700BFFEE700BFCA
:10268000FEE700BFFEE700BFFEE700BFFEE700BFBA
:10269000FEE700BFFEE700BFFEE700BFFEE700BFAA
:1026A000FEE700BFFEE700BFFEE700BFFEE700BF9A
:1026B000FEE700BFFEE700BFFEE700BFFEE700BF8A
:1026C000FEE700BFFEE700BFFEE700BFFEE700BF7A
:1026D000FEE700BFFEE700BFFEE700BFFEE700BF6A
:1026E000FEE700BFFEE700BFFEE700BFFEE700BF5A
:1026F000FEE700BFFEE700BFFEE700BFFEE700BF4A
:10270000FEE700BFFEE700BFFEE700BFFEE700BF39
:10271000FEE700BFFEE700BFFEE700BFFEE700BF29
:10272000FEE700BFFEE700BFFEE700BFFEE700BF19
:10273000FEE700BFFEE700BFFEE700BFFEE700BF09
:10274000FEE700BFFEE700BFFEE700BFFEE700BFF9
:10275000FEE700BFFEE700BFFEE700BFFEE700BFE9
:10276000FEE700BFFEE700BFFEE700BFFEE700BFD9
:10277000FEE700BFFEE700BFFEE700BFFEE700BFC9
:10278000FEE700BFFEE700BFFEE700BFFEE700BFB9
:10279000FEE700BFFEE700BFFEE700BFFEE700BFA9
:1027A000FEE700BFFEE700BFFEE700BFFEE700BF99
:1027B000FEE700BFFEE700BFFEE700BFFEE700BF89
:1027C000FEE700BFFEE700BFFEE700BFFEE700BF79
:1027D000FEE700BFFEE700BFFEE700BFFEE700BF69
:1027E000FEE700BFFEE700BFFEE700BFFEE700BF59
:1027F000FEE700BFFEE700BFFEE700BFFEE700BF49
:10280000FEE700BFFEE700BFFEE700BFFEE700BF38
:10281000FEE700BFFEE700BF08B5234B83F309883E
:10282000224B83F30A8883F30B8800F049F8204C8D
:10283000204BA34238BF9C4614D2DCF808306BB161
:10284000DCE9001200230439043A51F8040F013383
:1028500042F8040FDCF808008342F6D30CF10C0CAC
:10286000A445EAD31448154B98421BD2002403F127
:10287000FF3CACEB000C00F110032CF0070C08300F
:102880009C4450F8043C53B1002350F8082C043AFF
:1028900042F8044F50F8041C01338B42F8D308303F
:1028A0006045EED1FDF71EFD0000023000FE013054
:1028B000E43A0010D83A0010E43A0010E43A00106C
:1028C0002D492E4A30B58A60D1F888202C4B42F42D
:1028D0007002C1F888201A6822F030021A601A6863
:1028E00042F010021A604B6943F400234B61BFF3BE
:1028F0004F8FBFF36F8FBFF34F8FBFF36F8F0022E8
:102900004B6923F400334B61C1F85022BFF34F8F62
:10291000BFF36F8FC1F88420BFF34F8F4B6923F44F
:1029200080334B61BFF34F8F43F6E075D1F88040A1
:10293000C4F34E3C4FEA4C1CC4F3C90404F1010E2D
:1029400023464EF001E00CEA050040EA8372C1F82C
:102950007422013B0FF007C8ACF1200C1CF1200FD2
:10296000ECD1BFF34F8FBFF36F8F06490648074B7B
:10297000074A08601A6030BD00ED00E0000000105A
:1029800000E301E0D80000300048E801D400003046
:1029900040787D0108B5094C094D2846216800F0B2
:1029A00059F82368632B03DD042000F03BFA236809
:1029B000013364202360FDF7EBFDEEE7D88600309D
:1029C000883A0010002202481146FFF723BA00BFE0
:1029D0009529001008B5FFF7FBFDFDF76BFFFFF72A
:1029E000F1FFFDF783FFFEE708B5064B044613B180
:1029F0000021AFF30080044B1B6803B198472046C9
:102A0000FDF79AFD000000001488003070B50D4DF0
:102A100000260D4C641BA410A64209D10B4D0026C4
:102A20000B4C00F077FF641BA410A64205D170BDCB
:102A300055F8043B01369847EEE755F8043B01365C
:102A40009847F2E738010030380100303801003093
:102A50003C0100300FB407B5064904AB086853F8D1
:102A6000042B8168019300F031F803B05DF804EBAA
:102A700004B07047DC0000309368013B002B93608A
:102A800010B408DA9469A34201DB0A2903D15DF886
:102A9000044B00F033B91368581C106008461970D5
:102AA0005DF8044B7047F8B506460F461446D51836
:102AB000AC4201D1002007E03A4614F8011B304631
:102AC000FFF7DAFF431CF3D1F8BD00002DE9F04F0A
:102AD0000D469DB014469846064618B1036A0BB9D8
:102AE00000F098FC6B6ED90705D4AB899A0502D427
:102AF000A86D00F074FDAB891B0701D52B699BB94C
:102B00002946304600F038F970B16B6EDC0704D509
:102B10004FF0FF301DB0BDE8F08FAB899805F7D4BA
:102B2000A86D00F05DFDF3E70023CDF80C804FF0B9
:102B30000109DFF8B481099320238DF8293030236F
:102B40008DF82A3023469A4613F8012B0AB1252A1C
:102B5000F9D1BAEB040B0BD05B462246294630462E
:102B6000FFF7A1FF013000F0A780099A5A440992AB
:102B70009AF80030002B00F09F8000234FF0FF32C6
:102B80000AF1010A049307938DF853301A93CDE9A3
:102B9000052354460522544814F8011B00F093FB0A
:102BA000049AD8B9D10644BF20238DF853301307B7
:102BB00044BF2B238DF853309AF800302A2B15D0C0
:102BC000079A544600204FF00A0C214611F8013BA9
:102BD000303B092B4BD9B0B1079214E0A0EB0803AE
:102BE000A24609FA03F313430493D2E7039B191D8A
:102BF0001B68002B0391BBBF5B4242F002020793AC
:102C00000793B8BF049223782E2B0AD163782A2B1E
:102C100032D1039B02341A1D1B6843EAE37303920B
:102C20000593DFF8D4A003222178504600F04BFB37
:102C300038B1A0EB0A004022049B013482401343C8
:102C4000049314F8011B062228488DF8281000F080
:102C50003AFB00283FD0264B1BBB039B073323F0D6
:102C6000070308330393099B3B4409936AE70CFB72
:102C700002320C460120A8E7002301344FF00A0C71
:102C800019460593204610F8012B303A092A03D93A
:102C9000002BC6D00591C4E70CFB0121044601239B
:102CA000F0E703AB2A4604A930460093114BAFF37B
:102CB00000800746781CD6D16B6ED90705D4AB8946
:102CC0009A0502D4A86D00F08BFCAB895B063FF53A
:102CD0001FAF09981EE703AB2A4604A930460093AC
:102CE000044B00F019F9E4E7963A0010A03A0010FE
:102CF00000000000A72A00109C3A0010F8B50E460C
:102D00001446054618B1036A0BB900F083FBA369AA
:102D1000A360A3891A0701D5236943B92146284630
:102D200000F02AF818B14FF0FF373846F8BD236895
:102D3000F6B222693746981A6369834205DC214658
:102D4000284600F098FA0028EDD1A368013BA36063
:102D500023685A1C22601E70431C62699A4204D088
:102D6000A389DB07E1D50A2EDFD12146284600F0F2
:102D700082FA0028D9D0D6E738B5294B05460C464B
:102D8000186818B1036A0BB900F044FBB4F90C30B1
:102D9000190722D4DA0607D409222A6043F0400337
:102DA0004FF0FF30A38133E0580712D5616B41B17A
:102DB00004F14403994202D0284600F0C5FB0023E9
:102DC0006363A38923F02403A38100236360236941
:102DD0002360A38943F00803A38123694BB9A38926
:102DE00003F42073B3F5007F03D02146284600F09A
:102DF0001DFCB4F90C3013F001020AD00022A260CD
:102E000062695242A261226942B913F08000C5D1C1
:102E100038BD990758BF6269A260F4E70020F7E760
:102E2000DC000030024B01461868826800F03ABCB2
:102E3000DC0000302DE9F047164698468A680746C0
:102E40000B690C46DDF820909342B8BF13463360FF
:102E500091F843200AB1013333602368990642BFD9
:102E6000336802333360256815F0060506D104F196
:102E7000190AE36832689B1AAB422BDC94F84330A2
:102E80002268003B18BF0123920630D404F14302AC
:102E900041463846C847013023D023681A3454F8D5
:102EA0000A2C03F00603042B0ABF54F80E5C00251D
:102EB00033684FF0000608BFED1A54F8123C08BF03
:102EC00025EAE5759342C4BF9B1AED18B5421AD1A5
:102ED000002008E00123524641463846C8470130E9
:102EE00003D14FF0FF30BDE8F0870135C1E7E118AD
:102EF0005A1C30200233224481F8430094F84510D4
:102F000082F84310C2E70123224641463846C847AB
:102F10000130E6D00136D9E72DE9FF470F7E914613
:102F200080460C46782F9A460C9E01F1430207D842
:102F3000622F0AD8002F00F0DD80582F00F0C380E8
:102F400004F1420684F842703AE0A7F16303152BBE
:102F5000F6D801A151F823F0B12F0010C52F0010B1
:102F6000412F0010412F0010412F0010412F001061
:102F7000C52F0010412F0010412F0010412F0010CD
:102F8000412F0010DB300010533000109330001040
:102F9000412F0010412F0010FD300010412F001074
:102FA00053300010412F0010412F00109B300010B3
:102FB00033681A1D1B68326004F1420684F84230FF
:102FC0000123A8E031682368081D30601E0601D582
:102FD0000D6803E05D06FBD5B1F90050002D616876
:102FE00078DA2D200029A16084F843002DDA6D42A3
:102FF0005D480A231646B5FBF3F103FB1157C75D85
:1030000006F8017D2F460D46BB42F4D9082B0BD1A3
:103010002368DF0708D5236961689942DEBF302342
:1030200006F8013C06F1FF36921B22614B4603AACB
:1030300021464046CDF800A0FFF7FCFE01306FD1DD
:103040004FF0FF3004B0BDE8F08723F004032360A5
:10305000CDE721683368080653F8045B02D44906BB
:1030600048BFADB26F2F33603F4814BF0A23082317
:10307000002184F843106668002EA660BADB216840
:1030800021F004012160002DB4D1002EB2D11646EA
:10309000BCE7236843F02003236078273348236884
:1030A00084F845701F06316851F8045B02D45F064E
:1030B00048BFADB23160D90744BF43F0200323605D
:1030C0001DB11023D4E72848E9E7236823F0200343
:1030D0002360F6E724480A23CDE733682568181DE6
:1030E000616930602E061B6801D5196002E0680630
:1030F000FBD5198000231646236197E7336800212A
:103100001A1D32601E686268304600F0DCF808B1B3
:10311000801B606063682361002384F8433085E787
:103120002369324649464046D047013088D023685B
:103130009B0714D4E068039B9842B8BF184681E708
:103140000123324649464046D04701303FF478AF2C
:103150000135E36803995B1AAB42F1DCEAE700252D
:1031600004F11906F5E700BFA73A0010B83A0010BD
:10317000B1F90C202DE9F041170705460C4656D44D
:103180004B68002B02DC0B6C002B3DDDE66A002E49
:103190003AD0002312F480522F68216A2B6025D088
:1031A000626DA389580705D56368D21A636B0BB1AA
:1031B000236CD21A216A0023E66A2846B047411CD4
:1031C00024D00023636023692360A389DA0400D537
:1031D0006065616B2F60B9B104F14403994202D07C
:1031E000284600F0B1F9002363630DE0012328466F
:1031F000B047461C0246D4D12B68002BD1D01D2BE2
:1032000001D0162B2AD12F6000202EE02A68B4F9B5
:103210000C3042B11D2A01D0162A21D1002363604F
:1032200023692360D5E7626022692260CEE70F69D7
:10323000002FE9D093070E680F600CBF4B69002385
:10324000A6EB07088B60B8F1000FDDDD43463A4678
:10325000216A2846A66AB047002808DCB4F90C3079
:1032600043F040034FF0FF30A381BDE8F0810744F5
:10327000A8EB0008E7E738B50B6905460C4613B91B
:103280000025284638BD18B1036A0BB900F0C2F812
:10329000B4F90C30002BF3D0626ED00704D499053A
:1032A00002D4A06D00F09BF928462146FFF760FF8D
:1032B000636E0546DA07E4D4A3899B05E1D4A06DCB
:1032C00000F08EF9DDE7C9B20346024410B593421F
:1032D000184601D1002003E0047801338C42F6D176
:1032E00010BD0A44431E914200D1704710B511F839
:1032F000014B914203F8014FF9D110BD002310B5E5
:1033000004468360818119464366C2810822836135
:10331000C0E90033C0E904335C3000F00DF90D4B17
:10332000246263620C4BA3620C4BE3620C4B23637D
:103330000C4B9C4206D003F16802944202D0D03379
:103340009C4205D104F15800BDE8104000F046B998
:1033500010BD00BF45340010673400109F340010CA
:10336000C3340010DC860030024A0349034800F0F1
:10337000C5B800BF2C01003077320010E0000030EB
:1033800041680C4B994210B5044601D0FFF773FF1A
:10339000A168094B994202D02046FFF76CFFE16813
:1033A000064B994204D02046BDE81040FFF763BFAA
:1033B00010BD00BFDC86003044870030AC87003091
:1033C00010B50B4B04210B4C0B4A20461A6000220F
:1033D000FFF794FF04F1680001220921FFF78EFF37
:1033E00004F1D00002221221BDE81040FFF786BF91
:1033F00014880030DC86003069330010014800F08A
:10340000EEB800BF19880030014800F0E9B800BFED
:103410001988003010B50446FFF7F0FF236A1BB18E
:10342000BDE81040FFF7F0BF044B2362044B1B685C
:10343000002BF5D1FFF7C4FFF2E700BF8133001086
:103440001488003010B50C46B1F90E1000F044FAA3
:103450000028ABBF636DA3891B1823F48053ACBF56
:103460006365A38110BD2DE9F0411F468B89054698
:103470000C46DB05164605D502230022B1F90E10D5
:1034800000F018FAA3893246B4F90E10284623F446
:103490008053A3813B46BDE8F04100F017B810B55A
:1034A0000C46B1F90E1000F005FA431CA38915BFB4
:1034B000606523F4805343F48053A38118BFA38134
:1034C00010BDB1F90E1000F021B9000038B5044666
:1034D000064D0846114600222A601A46FCF7CCFF2A
:1034E000431C02D12B6803B1236038BD1C88003017
:1034F000014B1868704700BFDC0000302DE9F8432D
:103500000746884614460026D4E90195B9F1010919
:1035100005D52468002CF7D13046BDE8F883AB8987
:10352000012B07D9B5F90E30013303D029463846AF
:10353000C04706436835E9E702440346934200D199
:10354000704703F8011BF9E738B50546002941D05B
:1035500051F8043C0C1F002BB8BFE41800F0CEF962
:103560001D4A136833B9636014602846BDE83840CB
:1035700000F0CAB9A34208D9206821188B4201BFC4
:1035800019685B6809182160EDE71A465B680BB1A2
:10359000A342FAD911685018A0420BD12068014407
:1035A000501811608342E0D118685B68084453608A
:1035B0001060DAE702D90C232B60D6E720682118C7
:1035C0008B4202BF19685B680918636008BF2160FD
:1035D0005460CAE738BD00BF248800307047704788
:1035E000704770B50C46B1F90E1096B0154600291B
:1035F0001E460CDAA389002113F0800F14BF40236C
:103600004FF48063002031602B6016B070BD6A46B5
:1036100000F02EF90028EDDB019901F47041A1F5CD
:103620000053594259414FF48063EBE78B89F7B55A
:103630009D0706460C4607D504F147032360236126
:103640000123636103B0F0BD01AB6A46FFF7C9FF18
:10365000009F05463046394600F08AF848B9B4F96B
:103660000C309A05EED423F0030343F00203A38148
:10367000E2E7A389206043F08003A381019BC4E9B2
:1036800004075BB1B4F90E10304600F003F928B11D
:10369000A38923F0030343F00103A381A3891D43FE
:1036A000A581CFE770B50D461446064618B1036AEA
:1036B0000BB9FFF7AFFE636ED80705D4A389990550
:1036C00002D4A06DFFF78BFFA368013B002BA36022
:1036D00005DAA269934212DBEBB20A2B0FD0236802
:1036E0005A1C22601D70EDB2636EDA0705D4A389FF
:1036F0009B0502D4A06DFFF773FF284670BD2946D5
:1037000022463046FFF7FAFA0546EDE738B50023C2
:10371000054D044608462B60FCF7A0FE431C02D171
:103720002B6803B1236038BD1C88003070B50F4E84
:103730000C460546316811B9FCF700FF30602146A0
:103740002846FCF7FBFE431C03D14FF0FF34204614
:1037500070BDC41C24F00304A042F8D0211A2846EE
:10376000FCF7ECFE0130F2D1EFE700BF208800301B
:103770002DE9F843CD1C064625F0030508350C2D30
:1037800038BF0C25002D01DBA94204D90C2333607E
:103790000020BDE8F883DFF8D48000F0AFF8D8F857
:1037A00000301C4644BB29463046FFF7BFFF431C90
:1037B000044658D1D8F800402746002F43D1002CAA
:1037C0004BD023683946304604EB0309FCF7B6FEBC
:1037D000814542D1216830466D1A2946FFF7A6FF80
:1037E00001303AD023682B442360D8F800305A685F
:1037F00062BBC8F800700FE02268521B20D40B2A6D
:1038000017D96119A342256018BF5960636808BFC2
:10381000C8F8001062514B60304600F075F804F1B2
:103820000B00231D20F00700C21A1CBF1B1AA35057
:10383000AFE76268A3420CBFC8F800205A60EBE70C
:1038400023466468AEE73C467F68B6E71A465B6885
:10385000A342FBD100235360DEE70C2330463360E4
:1038600000F052F894E70560D6E700BF24880030E6
:1038700038B50023064D0446084611462B60FCF778
:103880004BFE431C02D12B6803B1236038BD00BF3F
:103890001C88003038B50023054D044608462B60CF
:1038A000FCF726FE431C02D12B6803B1236038BD10
:1038B0001C88003038B50446064D084611460022E3
:1038C0002A601A46FCF71AFE431C02D12B6803B18A
:1038D000236038BD1C88003038B50446064D0846C4
:1038E000114600222A601A46FCF7EAFD431C02D169
:1038F0002B6803B1236038BD1C8800300148FFF7F6
:103900006EBE00BF188800300148FFF769BE00BFD7
:1039100018880030F8B500BFF8BC08BC9E46704758
:10392000F8B500BFF8BC08BC9E46704752545820FA
:1039300056352E392E300000000000000000000037
:103940000000000000000000000000000000000077
:103950000000000000000000000000000000000067
:103960000000000000000000000000000000000057
:1039700003000000E8030000050000008806003096
:103980001000000000000000000000000000000027
:10399000000000000000000000000000C806003029
:1039A0000080000000000000000000000000000097
:1039B0000000000000000000000000000000000007
:1039C00000000000000C0000203A0010FC3900103C
:1039D0005D1F00103D1F0010E439001004000000BE
:1039E000000000000000000000000000B0010030F6
:1039F00034000000600100305000000000000000B2
:103A000000000000E803003050000000E801003032
:103A1000000200002800000000000000000000007C
:103A200000000000000000003804003050000000DA
:103A300088040030000200000100000000000000C7
:103A4000000000000030305900C2010005200010C5
:103A5000212000102520001029230010052200102D
:103A6000C12100106D210010392000105D200010D0
:103A7000692000109D20001075200010912000107A
:103A8000992000100402000358696E206368616F7A
:103A90002025640D0A00232D302B2000686C4C007B
:103AA000656667454647003031323334353637383E
:103AB000394142434445460030313233343536379C
:103AC0003839616263646566000000000000000030
:083AD0000CC8FF7F010000009B
:0C3AD800E43A0010000000305000000034
:103AE4002C3900101050FC020000000000000000FF
:103AF40000000000000000000000000000000000C2
:103B040000000000000000000000000000000000B1
:103B140000000000000000000000000000000000A1
:103B24000000000000000000000000000000000091
:103B34000000000000000000000000000000000081
:103B44000000000000000000000000000000000071
:103B54000000000000000000000000000000000061
:103B64000000000000000000000000000000000051
:103B74000000000000000000000000000000000041
:103B840000000000443A0010CC8600300000000021
:103B9400A40000300000000021220000000000000A
:103BA4000000000000000000000000000000000011
:103BB4000000000040787D010048E801E00000308A
:103BC40000000000DC86003044870030AC87003001
:103BD40000000000000000000000000000000000E1
:103BE40000000000000000000000000000000000D1
:103BF40000000000000000000000000000000000C1
:103C040000000000000000000000000000000000B0
:103C140003000000DC860030B9020010910200109D
:0400000510002819A6
:00000001FF
