:020000041000EA
:10000000000002304D260010792500107B250010DD
:100010007D2500107F25001081250010832500100C
:100020000000000000000000000000005903001064
:1000300085250010000000002F0400103F04001070
:1000400087250010892500108B2500108D250010B4
:100050008F25001091250010000000000000000016
:100060000000000093250010952500109725001032
:1000700099250010000000009B2500109D25001010
:100080009F2500100000000000000000000000009C
:100090000000000000000000000000000000000060
:1000A0000000000000000000A1250010A3250010A2
:1000B000A5250010A725001000000000000000008A
:1000C000A925001085220010D5220010AB250010B4
:1000D000AD250010AF250010B1250010B32500108C
:1000E000B5250010B7250010B9250010BB2500105C
:1000F000BD250010BF250010C1250010C32500102C
:10010000C5250010C7250010C9250010CB250010FB
:10011000CD250010CF250010D1250010D3250010CB
:10012000D5250010000000000000000000000000C5
:1001300000000000000000000000000000000000BF
:1001400000000000000000000000000000000000AF
:1001500000000000D7250010D9250010DB25001075
:10016000DD250010DF250010E1250010E32500103B
:10017000E5250010E7250010E9250010EB2500100B
:10018000ED250010EF250010F1250010F3250010DB
:10019000F5250010F7250010F9250010FB250010AB
:1001A000FD250010FF250010012600100326001079
:1001B0000526001007260010092600100B26001047
:1001C0000D2600100F260010112600101326001017
:1001D0001526001017260010192600101B260010E7
:1001E0001D2600101F2600102126001023260010B7
:1001F0002526001027260010292600102B26001087
:100200002D2600102F260010312600103326001056
:100210003526001037260010392600103B26001026
:100220003D2600103F2600104126001043260010F6
:100230004526001047260010492600104B260010C6
:100240000000000000000000000000000348044B14
:10025000834202D0034B03B1184770473C01003082
:100260003C01003000000000064B0749C91A891004
:1002700048BF0131491003D0044B0BB10148184766
:10028000704700BF3C0100303C010030000000001E
:1002900010B5064C237843B9FFF7D8FF044B13B1D0
:1002A0000448AFF300800123237010BD40010030EB
:1002B00000000000E038001008B5054B1BB10549EF
:1002C0000548AFF30080BDE80840FFF7CDBF00BF91
:1002D0000000000044010030E0380010A3F5803A2F
:1002E000704700BF174B002B08BF134B9D46FFF70D
:1002F000F5FF00218B460F461348144A121A03F0EB
:1003000025F80E4B002B00D098470D4B002B00D04A
:1003100098470020002104000D000D48002802D05D
:100320000C48AFF3008002F07BFA2000290002F0B5
:100330005BFA02F063FA00BF000008000000000052
:100340001109001000000230400100302888003000
:1003500000000000000000001EF0040F0CBFEFF3CF
:100360000880EFF30980816911F8021C002950D13F
:1003700001B590E80F10E047BDE80050CCF8000050
:10038000334B93E80600914208BF70471A6041B9A9
:100390001EF0100F2CD12F4B186820F001001860B0
:1003A00026E0ACF1200C1EF0100F08BFACF1400CA1
:1003B000C1F838C081F822E006B4084601F0DCFB41
:1003C00006BC50B90C46012000F061FA204B5A6877
:1003D0001A60002194F922E0DAE791F922E0D1F8DD
:1003E00038C01EF0100F08BFACEC108A8CE8F00F7C
:1003F0001400A06B216B81F30B8894F922E01EF0AE
:10040000100F08BFB0EC108AB0E8F00F80F3098835
:100410007047114A13689942FAD801B552F821C0C1
:100420000FC8E047BDE80050CCF80000704701B5A8
:1004300000F0F0FFBDE80140EFF3098CA0E701B543
:1004400000F0A2FFBDE80140EFF3098C98E700003F
:100450001400003034EF00E0F4370010022801D817
:100460000020704708B502F04DFF582303604FF09D
:10047000FF3008BD70B5012814D0022816D0C0B1D5
:1004800002F040FF582303604FF0FF350FE00135C5
:10049000B5420CD214F8010B02F03CF8B0F1FF3F6A
:1004A000F5D104E00C4616460025F1E70025284664
:1004B00070BD4FF0FF35FAE738B5044638B1002873
:1004C0000DDB441E012C0AD84FF0FF3038BD0D461D
:1004D00002F038F8002809DB28700120F6E702F066
:1004E00011FF582303604FF0FF30EFE72046EDE7A0
:1004F000022801D80120704700207047022802D846
:100500004FF0FF30704708B502F0FCFE582303603F
:100510004FF0FF3008BD08B501280DD0022810D0DB
:1005200030B102F0EFFE582303604FF0FF3002E0DD
:100530004FF400534B6008BD4FF400534B60002054
:10054000F9E74FF400534B600020F4E7FEE70000AA
:10055000054B1B6823B1044B1868014419607047B0
:10056000014B024A1A60F6E75C010030288800302F
:1005700010B550B104460146132001F0DBFA58B122
:10058000204600F047F8002010BD6FF0030000F097
:100590003FF86FF00300F7E74FF0FF3000F038F856
:1005A0004FF0FF30F0E7000010B5044600F031F8DE
:1005B000EFF3058353B9EFF310833BB9EFF31183E6
:1005C00023B92046DFF814C000DF05E06FF0050016
:1005D00000F01EF86FF0050010BD00BF710500109F
:1005E0007047704770477047704770477047704753
:1005F0007047704770477047704770477047704743
:100600007047704770477047704770477047704732
:100610007047704770477047704770477047704722
:100620007047704770477047704770477047704712
:100630007047704770477047704770477047704702
:1006400010B5604B1B7A012B00F0A180002B40F00D
:10065000A2805D4C9C220021204602F077FE5B4B7D
:10066000DA6862651A8AA4F84C209A68A263DC6A88
:10067000196B204600F050F910B1524BC3F880407E
:10068000524B5C699969204600F046F9002800F059
:1006900089804C4B5C674D4BDC69196A204600F041
:1006A0003BF9002800F08380464B9C67474B5C6A0F
:1006B000996A204600F030F900287DD0414BDC6774
:1006C000424B5C6B44B1E368A2682168204600F0AD
:1006D000D1F93C4BC3F884403C4B9C6B44B1E3687C
:1006E000A2682168204600F0C5F9364BC3F888405F
:1006F000364BDC6B44B1E368A2682168204600F009
:10070000B9F9304BC3F88C40304B1C6C44B1E368F2
:10071000A2682168204600F0ADF92A4BC3F890404A
:100720002A4B5C6C44B1E368A2682168204600F063
:10073000A1F9244BC3F89440244B9C6C44B1E3686A
:10074000A2682168204600F095F91E4BC3F8984036
:100750001E4BDC6C44B1E368A2682168204600F0BF
:1007600089F9184BC3F89C40184B1C6D44B1E368E1
:10077000A2682168204600F07DF9124BC3F8A04022
:10078000104B01221A72FFF733FF002010BDFFF754
:100790002FFF0020FAE74FF0FF30FFF727FF4FF061
:1007A000FF30F3E7074BD3F880205A6773E7054B18
:1007B000D3F880209A6779E7024BD3F88020DA6774
:1007C0007EE700BF000000300800003084370010D2
:1007D0000E4BFF2283F8222093F8223063F0FF03B0
:1007E000DB4311D0B3FA83F3C3F12003074AD26885
:1007F000C2F30222934200D8531CFE2202FA03F3F2
:10080000DBB2024AD37770472023EDE700ED00E02A
:1008100038B51B4B1B7A012B1DD101F049FA08B3E7
:10082000FFF7D6FF1749184B586801F01DFB054626
:10083000F8B901F057FB124C206101F039FB04F1CB
:100840001C0000F0E8FE00F0B3FF02232372FFF764
:10085000D1FE284638BD6FF00700FFF7C7FE4FF006
:10086000FF35F6E74FF0FF30FFF7C0FE4FF0FF35E2
:10087000EFE74FF0FF30FFF7B9FE4FF0FF35E8E745
:10088000000000303F04001084370010704738B576
:1008900004460D46FFF7AFFE2946204601F06BFEE9
:1008A00038BD000008B5FFF7F1FFFFF7A0FEEFF33A
:1008B00005834BB9EFF3108333B9EFF311831BB901
:1008C000DFF814C000DF05E06FF00500FFF78EFED3
:1008D0006FF0050008BD00BF4106001008B5FFF726
:1008E00088FEEFF305834BB9EFF3108333B9EFF3D1
:1008F00011831BB9DFF814C000DF05E06FF00500BD
:10090000FFF774FE6FF0050008BD00BF110800106E
:1009100008B5FFF7C7FF08BD10B5034638B110F0A2
:10092000070F04D111F0070F01D1172905D80022B4
:100930001846FFF755FE002010BD016010205860DA
:10094000A1F1080C03EB0C029A60002243F80C2082
:100950009C686060DA6001221846FFF741FE0120C2
:10096000EAE7F8B5D0B1C9B1032A17D801F10F05EC
:1009700025F0070500F108031C461B68A3EB040CD7
:10098000666826F0030EACEB0E0C65450CD91C68AE
:10099000002CF1D10023FFF724FE03E00023FFF732
:1009A00020FE00242046F8BD46682E4446600368B9
:1009B000083B03445F68BE4200D95E60666836B992
:1009C0001543656008342346FFF70BFEEAE726F07F
:1009D0000306A3192768A75115435D60236003F13F
:1009E0000804F0E738B560B159B1A1F1080C00F185
:1009F0000803002463450DD01A681C4632B1134623
:100A0000F8E70022FFF7EEFD002011E0FFF7EAFD16
:100A100000200DE042685D6825F0030CA2EB0C029B
:100A2000426034B11B6823600122FFF7DBFD012027
:100A300038BD00225A60F7E7034653E8000F10B9AB
:100A4000BFF32F8F04E0026843E8002101B1F4E70F
:100A5000704710B403680B60BFF35F8F50E8003F2E
:100A60000A689A42F6D140E8001404B1F2E75DF852
:100A7000044B7047E0B170B50C4616461D46C9B12F
:100A8000D2B1DBB10160002343608260C560456183
:100A900002FB015303612B46FFF7A5FD02E0AB19F2
:100AA0002B601D46013CFAD100232B60012002E09F
:100AB00000207047084670BD1046FCE70020FAE7AA
:100AC00038B5044690B11430FFF7B6FF054638B18B
:100AD000231D53E8002F511C43E8001000B1F8E734
:100AE00029462046FFF780FD284638BD00210846EC
:100AF000FFF77AFD2546F7E738B50C460546B8B14D
:100B0000C3688B4214D803698B4211D91430FFF7A4
:100B1000A0FF2B1D53E8002F511E43E8001000B129
:100B2000F8E7002221462846FFF75FFD002038BD88
:100B30006FF0030221462846FFF757FD6FF00300D0
:100B4000F5E7034653E8000F10B9BFF32F8F04E019
:100B5000421E43E8002101B1F4E7704710B4036B73
:100B6000F3B1002401E01C465B6823B193F803C095
:100B7000CA789445F7D34B608C606BB199606CB1C7
:100B80006160283050E8003F5A1C40E8002101B164
:100B9000F8E75DF8044B7047C162F0E70163F0E7E6
:100BA00000234B608B60C1620163EAE710B5044625
:100BB0002830FFF7C6FF68B1E06A60B1831C0121ED
:100BC000D3E84F2FC3E8441F04B1F9E7D2B212B102
:100BD0008068F2E7002010BD4B6833B18A689A60E4
:100BE0008B682BB14A685A6070478B68C362F7E71D
:100BF0004B680363704708B10120704700207047BD
:100C0000F8B50446837873B985684168AB6813B159
:100C10005B78832B3FD02846FFF70BFD2146284603
:100C2000FFF79CFFF8BDC56801462846FFF7D4FFD3
:100C30000023237005F10C0621463046FFF75CFFC8
:100C4000AB68002BEED03046FFF73AFF0446002891
:100C5000E8D0284600F0DFFC06460022114600F0EE
:100C600037FF304600F030FD064647686A6A39466D
:100C700004F10C0002F03FFAF92323700023A37063
:100C8000337AE37021462846FFF768FF3946284645
:100C9000FFF7CFFCC6E72846FFF7CBFC284600F05D
:100CA000BAFC06460022114600F012FF304600F062
:100CB0000BFD064647686A6A04F10C01384602F0EB
:100CC0001AFAB3680BB1E2781A7039462846FFF772
:100CD000B5FC00232370214605F10C00FFF70CFF43
:100CE000A0E700002DE9F04F83B0A8B30E461546EB
:100CF000804689B3B1FA81F3B0FA80F213441F2B16
:100D00002AD9CF1C27F003070C3707FB00FB002D67
:100D10004CD0D5F800A06B68AC68D5F810906A6923
:100D2000019213F4801F21D174B32046FFF763FFB3
:100D300018B3EB68342B20D1B9F1000F2DD019F086
:100D4000030F02D1019B9B4533D96FF00A010020AC
:100D5000FFF769FC002405E06FF003010020FFF7B6
:100D600062FC0024204603B0BDE8F08F6FF006015E
:100D70000020FFF758FC0024F4E76FF00901002081
:100D8000FFF751FC0024EDE7EB68002BD4D06FF0A7
:100D900009010020FFF747FCE4E7019B4BB16FF02E
:100DA0000A010020FFF73FFC4C46DBE7AA46A946B4
:100DB0002C4604B30025B9F1000F2FD0002C57D0DA
:100DC000FA232370A5700023E370C4F804A0A36085
:100DD0006662A362E36223634B463A46414604F1EE
:100DE0000C00FFF747FE254B254A1A67616820462D
:100DF000FFF71AFCB6E7214BD3F8A00028B1FFF7A4
:100E00005FFE044694B30125D5E7012234211B4B34
:100E1000D3F88000FFF7A5FD0446F3E7002259460A
:100E2000164BD86FFFF79DFD814630B15A46002121
:100E300002F08CFA45F00205C0E715F0010F13D05F
:100E40000E4BD3F8A0B0BBF1000F05D02146584699
:100E5000FFF752FE4C46EDE72146084BD3F88000E1
:100E6000FFF7C0FD5C46E5E70446E3E70125A5E79B
:100E70006FF004010020FFF7D6FB73E7000000309D
:100E8000010C00102DE9F04104460E4690461D4627
:100E9000FFF7B1FE08B32378FA2B1ED1EEB1E5B906
:100EA00004F10C00FFF70CFE0546F0B1626A314612
:100EB0000C3002F020F9F9232B700027AF7085F871
:100EC00003806E60AC60284600F0DCFA31462046B4
:100ED000FFF7AEFB3846BDE8F0816FF00301204616
:100EE000FFF7A1FB6FF00300F5E731462046FFF75F
:100EF000A1FB6FF00200EEE72DE9F04104460D463C
:100F000017461E46FFF777FE38B32378FA2B24D115
:100F10001DB3A36813B15B78832B26D004F10C00BA
:100F2000FFF7CEFD804600283FD0626A29460C308C
:100F300002F0E1F8F92388F80030002688F8026012
:100F400088F8037041462046FFF708FE29462046F0
:100F5000FFF76FFB3046BDE8F0816FF003012046DC
:100F6000FFF761FB6FF00300F5E729462046FFF726
:100F700060FB204600F04FFB06460122002100F0F6
:100F8000A7FD304600F0A0FB0646D0F80480626A58
:100F90002946404602F0AFF8B36803B11F704146DE
:100FA0002046FFF74BFB0020D5E7BEB1324629466D
:100FB0002046FFF73BFB3146932000F0BBFD38B1E4
:100FC0000A4B5969204600F015FB6FF00100C2E79B
:100FD0002046FFF72CFB6FF00100BCE729462046B6
:100FE000FFF728FB6FF00200B5E700BF00000030FC
:100FF000F8B504460D4616461F46FFF7FCFDE0B166
:101000002378FA2B19D1C5B1BFB92046FFF7CEFD21
:101010000746D0B1626A00F10C01284602F06BF875
:101020000EB1FB783370FC60384600F02BFA29468D
:101030002046FFF703FB0020F8BD6FF003012046B8
:10104000FFF7F1FA6FF00300F6E729462046FFF7B5
:10105000F6FA6FF00200EFE72DE9F04104460D4685
:1010600090461E46FFF7C7FD002853D02378FA2B81
:1010700050D1002D4ED02046FFF798FD074600289E
:1010800050D001462046FFF7A7FD626A07F10C0128
:10109000284602F030F8B8F1000F02D0FB7888F84B
:1010A000003029462046FFF7C9FA00233B7004F1BF
:1010B0000C0539462846FFF71FFDA368002B51D0C9
:1010C0002846FFF7FDFC064600284ED0204600F0DB
:1010D000A2FA05460122002100F0FAFC284600F0A1
:1010E000F3FA0746D0F80480626A414606F10C0024
:1010F00002F001F8F92333700025B5703B7AF370E4
:1011000031462046FFF72AFD41462046FFF791FA77
:10111000284628E06FF003012046FFF784FA6FF0BD
:10112000030020E0BEB1324629462046FFF784FA8C
:101130003146832000F0FEFC38B10D4B5969204642
:1011400000F058FA6FF001000DE02046FFF775FA45
:101150006FF0010007E029462046FFF770FA6FF0B4
:10116000020000E00020BDE8F0810020FBE700BFA6
:101170000000003008B5074B9A6E0821D86EFFF7C3
:10118000B1FD054BD86408B1002008BD4FF0FF3019
:10119000FBE700BF8437001000000030F8B50746B9
:1011A0000E4614461D46FFF740FAEFF305836BB970
:1011B000EFF3108353B9EFF311833BB9384631464F
:1011C00022462B46DFF814C000DF05E02B462246FE
:1011D00031463846FFF756FEF8BD00BFF90E001045
:1011E000F8B507460E4614461D46FFF724FAEFF3FE
:1011F00005836BB9EFF3108353B9EFF311833BB958
:101200003846314622462B46DFF814C000DF05E0A1
:101210002B46224631463846FFF7EAFEF8BD00BFAE
:101220005910001070B5044606E0F46201212176E1
:101230002046FFF7F4F92C46ECB16569E37813F02A
:10124000080FF8D0002121762046FFF7E9F9A368BE
:10125000002BF0D0204600F0DEF9064600221146B1
:1012600000F036FCE66000232361F36A6361002B23
:10127000DBD01C61D9E770BD08B5C37813F0020F4D
:101280001BD0C06890F921C0C36A03E0926808E0EF
:101290005B6973B1DA7812F0020FF9D09A688A426A
:1012A000F4D0002AF4D092F920206245F0DD944673
:1012B000EEE790F92030634500D108BD80F820C0EA
:1012C00000F0BCF9F9E710B4D0E85F3F994202D8CA
:1012D000BFF32F8F04E05A1CC0E8542F04B1F3E78A
:1012E00098B25DF8044B704710B4D0E85F3F5A1CC9
:1012F000914200D80022C0E8542F04B1F5E798B21B
:101300005DF8044B7047D0E85F3F13B9BFF32F8FF0
:1013100004E05A1EC0E8512F01B1F4E798B27047BB
:1013200070B504460A48B0F8545029465630FFF7C5
:10133000CAFFA84201D3002070BD064E29463046A0
:10134000FFF7D2FF736843F820400120F4E700BFA5
:10135000000000305800003038B50948B0F854504B
:101360005630FFF7D0FF48B1064C29462046FFF71C
:10137000BBFFD4F8023053F8200038BD0020FCE752
:10138000000000305A00003038B500F0A7FD204CB6
:10139000E3680133E36000F0A3F9002000F022FAD3
:1013A000236D03B198471A4B1A6C9AB119469B6981
:1013B000C96B994204D01649CB63D96901B9DA6186
:1013C000DA690AB1013ADA61DB691BB9104B1B7AA1
:1013D000022B00D038BD0E4B5C6A002CFAD094F979
:1013E0002020DB6B93F920309A42F3D1204600F0A5
:1013F0001BF9074DE86B00F033F9E86BFFF702F9D2
:10140000204600F0D5F9EC632B6CE361E2E700BF06
:101410000000003008B502E0194B1B6E9847FFF73B
:101420009BFF48B30378F13B082BF8D801A151F892
:1014300023F000BF191400101F14001059140010DD
:101440001F1400101F140010611400106914001004
:101450001F14001071140010094B5B6E9847DEE7F3
:10146000074B9B6E9847DAE7054BDB6E9847D6E74C
:10147000034B1B6F9847D2E7002000F0B3F908BD7B
:101480000000003010B50446FFF74AFF58B1084B82
:101490005B7A23B9074B4FF080525A6010BD044B62
:1014A00001229A72FAE721460220FFF7F0F9F5E7E8
:1014B0000000003000ED00E010B4034653E8000FD8
:1014C00000EA01028A4203D0BFF32F8F002005E01B
:1014D00020EA010243E8002404B1EFE75DF8044B81
:1014E000704710B4034653E8000F084203D1BFF31E
:1014F0002F8F002005E020EA010243E8002404B118
:10150000F1E75DF8044B704708B512F0020F0AD1FD
:1015100012F0010F03D02830FFF7CEFF08BD2830AE
:10152000FFF7DFFFFAE7806A12F0010204D031EA28
:10153000000301D00020F1E7002AEFD10842EDD1ED
:101540000020EBE708B1012070470020704700E061
:10155000C0680378F12BFBD070470000B1F1FF3F6A
:101560000BD010B4154BDB6A0024B3B1DA698A42A0
:1015700013D8891A1C461B69F7E7104B1B6B002216
:1015800013B11A461B69FBE7C161426103610AB1ED
:1015900010617047094B18637047C1614461036172
:1015A00044B120611BB1DA69521ADA6158615DF801
:1015B000044B7047014AD062F4E700BF00000030DE
:1015C00008B50123437090F920C009494B6A1C31CA
:1015D00001E019469B681BB193F920209445F8DB84
:1015E000C1608360886003B1D860FFF70BF808BD65
:1015F0000000003091F920C0836801E018469B6824
:101600001BB193F920209445F8DDC8608B608160A0
:1016100003B1D96070470346806882689A6002B15E
:10162000D3600023C3607047C36833B182689A6097
:101630000AB1C368D3600023C360704738B505465C
:10164000044600E0E46814B12378F12BFAD034B1F9
:101650002846FFF7E9FF29462046FFF7CBFF38BDB4
:1016600008B50146012343700148FFF7C3FF08BDD9
:101670001C000030C369B3F1FF3F10D002692AB1EA
:10168000D1690B44D361036942695A614369ABB1C3
:1016900002691A61002343610023C3617047036933
:1016A0000BB142695A61436923B102691A6100238F
:1016B0004361F1E70269034B1A63EDE70269014BED
:1016C000DA62E9E700000030826B90F8223013F014
:1016D000100F02D16020104470472020FBE700006B
:1016E00038B5324BDC6A002C5ED0E369013BE36124
:1016F000002B59D12DE0132B17D0332B18D12046B6
:10170000FEF784FF14E0832B43D0932B05D12046B2
:10171000FFF71DFFFEF78BFF0AE0732B08D1204671
:10172000FFF715FFFEF77EFF02E02046FEF773FF8E
:101730002046FFF7C9FF01682046FEF762FF2046FA
:10174000FFF772FF2046FFF78BFF24693CB3E36984
:101750002BBB6378632B16D0D5D8432B0DD0CAD9B9
:10176000532BE5D12046FFF7F2FE05462146FFF751
:1017700083FD2846FEF752FFDAE72046FFF7E7FE33
:10178000FEF74BFFD4E72046FFF7E1FEFEF749FFE7
:10179000CEE72046FFF7DBFEFEF74FFFC8E70CB1B0
:1017A00000236361014BDC6238BD00BF00000030E4
:1017B00008B502234370C37813F0040F09D0022345
:1017C00083F31488BFF36F8F054B9861FEF71BFFFF
:1017D00008BD032383F31488BFF36F8FF4E700BFC2
:1017E0000000003038B5164B1A7A5D6960B10446C6
:1017F000022A05D190F9202095F920309A4218DC70
:101800002046FFF72DFF38BD5C6A022AFBD1002C71
:10181000F9D094F9202095F920309A42F3DD204642
:10182000FFF702FF2846FFF7CBFE2046FFF7C0FF79
:10183000E9E72846FFF7C4FE2046FFF7B9FFE2E7D5
:10184000000000302DE9F04F83B0009178B31646C8
:101850008246002A56D0D2F800B0D2F804809468AC
:1018600017695569D2F8189008F00603062B24D0A2
:1018700018F4801F28D1ACB32046FFF763FE50B3A5
:10188000F368502B27D11FB117F0070F33D195B351
:10189000B9F1000F00F0888009F1FF33372B38D9F8
:1018A0006FF00C010020FEF7A7FE0024FCE06FF0B3
:1018B0000301FEF7A1FE0024F6E06FF00301002013
:1018C000FEF79AFE0024EFE06FF006010020FEF71D
:1018D00093FE0024E8E06FF009010020FEF78CFE83
:1018E0000024E1E0D368002BCDD06FF00901002087
:1018F000FEF782FED8E06FF00B010020FEF77CFEC1
:101900000024D1E09346174614464FF018090025ED
:10191000A84618F0060F06D1684B1B6813F0010F9C
:1019200045D048F0040835B115F0070F42D1472DD6
:1019300040D9002D3EDB002C43D00026002F54D090
:10194000002C00F0B580F123237001236370A67092
:1019500008F00F0884F80380C4F804B00023A360E3
:10196000E36023616361A361E3614FFA89F984F85D
:10197000209084F82190FD2284F8222084F82330DE
:101980006362A362E362276365637B19403BA363E1
:10199000C4F83CA04A4B3B60484B1B6813F0040F53
:1019A00065D0AD08113D60E04FF01809B1E748F08F
:1019B0000208B8E76FF00B010020FEF71DFE0024BF
:1019C00072E0404BD3F8880030B1FFF779F8044655
:1019D000002C43D00126B1E701225021394BD3F826
:1019E0008000FEF7BEFF0446F2E7A5B9334B5D6DFC
:1019F000344BD3F8840030B1FFF762F8074688B162
:101A000046F010060EE0002229462E4B586FFEF7D6
:101A1000A8FF074606E0002229462A4B586FFEF72A
:101A2000A0FF074617B146F0020689E716F0010F3E
:101A300012D0244BD3F8883001932BB1214618469D
:101A4000FFF75AF83C46EEE721461E4BD3F88000DC
:101A5000FEF7C8FF019CE6E73C46E4E701266FE796
:101A60004FF0CC3347F8043F013D002DF8D1A16B76
:101A7000002303E0002241F8232001330E2BF9D18B
:101A8000114B8B634FF08073CB63009B0B62C1F8EB
:101A900024A00C4B0D4A1A666268E16B2046FEF7E3
:101AA000ADFD2046FFF79EFE204603B0BDE8F08F57
:101AB0006FF004010020FEF79FFDF5E7843700106A
:101AC000A52E5AE200000030551D0010FD1A00102E
:101AD00070B504460E461546FEF793FD2046FFF707
:101AE000F3FD06602046FFF7C5FD1DB12046FFF758
:101AF00079FE70BD2046FFF7B3FDFAE738B54378AD
:101B0000332B00D038BD044690F82320416AFFF7FC
:101B1000FBFC05460028F5D0002201462046FFF7D1
:101B2000D7FF23462A4694F82310606AFEF76FFD1C
:101B3000E8E70000F8B50F4B1B7A022B16D10546DB
:101B40000C460C4B5B6A9BB10A4F7E693046FEF730
:101B500057FD757021463046FFF700FD07F11C0068
:101B6000FFF759FDFFF724FE012000E00020F8BD3B
:101B70000020FCE700000030826B036B9A4205D91D
:101B80001A68044B9A4203D1012070470020704725
:101B900000207047A52E5AE210B50446806930B186
:101BA00000221146FFF794FFA069FEF728FD637835
:101BB000232B00D010BDA36800229A61FAE770477A
:101BC00010B50446FFF7FBFF002363702370A37872
:101BD00013F0020F08D013F0100F11D0216B0F4B30
:101BE000D3F88400FEF788FFA37813F0010F06D026
:101BF0000A4BD3F8880048B12146FEF77DFF10BD9F
:101C0000216B064B586FFEF7EDFEEDE72146034BC7
:101C1000D3F88000FEF7E6FEF1E700BF00000030D9
:101C200010B50446C37813F0010F0ED0042343709F
:101C30000023C360064B5B6B836003B1D860044B29
:101C40005C632046FEF7E1FC10BDFFF7B9FFF8E743
:101C50000000003038B5154B1B7A022B1DD1134BF9
:101C60005B6AD3B1114D6C69E06AFFF7DBFA20467D
:101C7000FFF792FF05F11C00FFF7CDFCFFF798FD81
:101C8000EFF30983A3632046FFF776FF30B1074BDC
:101C900000225A612046FFF7C3FF38BDAA696A6176
:101CA00021460120FEF7F3FDF1E700BF0000003000
:101CB00010B50E4CA26D00210D48FFF7C3FD0D4B72
:101CC0009862636E7BB1984708B1002010BD23462F
:101CD000084CDA6DE16C186EFFF7B4FDA0640028C3
:101CE000F4D00120F2E70120F0E700BF84370010B4
:101CF000752500100000003070B506460D461446EC
:101D0000FEF77BFCEFF3058363B9EFF310834BB968
:101D1000EFF3118333B9304629462246DFF814C069
:101D200000DF05E06FF005010020FEF765FC0020F4
:101D300070BD00BF4518001008B5FEF765FCDFF860
:101D400010C000DF4FF0FF310020FEF755FCFEE72A
:101D5000551C001008B58847FFF7EEFF10B40D4B77
:101D60005B6C002402E0891A1C46DB6813B11A6917
:101D70008A42F8D901618460C3601BB11A69521AA2
:101D80001A6198601CB1E0605DF8044B7047014B2C
:101D90005864F9E700000030C3680BB182689A60AC
:101DA000C268014B5A64704700000030F8B51B4B05
:101DB0005C6C002C31D05E692369013B236113E028
:101DC000164D6F69AB696B6121460320FEF75FFD1D
:101DD0006B69CBB9BE4217D11E4615E0616920463A
:101DE000FFF7BCFF0D4B5C6CACB123699BB920467F
:101DF000FFF7D2FF00231A4604F118010748C06C10
:101E0000FFF7CCF90028DBD1E37813F0010FE5D11F
:101E100001236370E6E7014B5E61F8BD000000300E
:101E200008B5FFF7A7F918B9034B044A1A6508BDAE
:101E30004FF0FF30FBE700BF00000030AD1D001089
:101E400000B583B004464FF0FF33002269462046B8
:101E5000FFF7C6F90028F6D101990098FEF7DCFBE0
:101E60000198009B9847EEE7A8B10E4B1B68B3FBA7
:101E7000F0F3013BB3F1807F10D20B4AFF2182F8CF
:101E800023104FF0E0220621116153610020906180
:101E9000064B187070474FF0FF3070474FF0FF301F
:101EA000704700BFD400003000ED00E0C88600306D
:101EB000084B1B7833B1074B00221A70064B4FF0CA
:101EC00080625A604FF0E022136943F0010313610E
:101ED000704700BFC886003000ED00E04FF0E023FF
:101EE0001B6970474FF0FF307047000082B0074B0E
:101EF0001B6801930020BDF8043063F30F00BDF8A8
:101F0000063063F31F4002B0704700BF98380010DE
:101F1000002807DB00F01F02400901239340024A1A
:101F200042F82030704700BF00E100E000280CDBE1
:101F300000F01F024009012393402030034A42F879
:101F40002030BFF34F8FBFF36F8F704700E100E089
:101F50000120704703460020DA68121A18BF0122D8
:101F600062F300009B69003B18BF012363F341004B
:101F700070470000024B58600122DA72002070475F
:101F8000AC000030084BDB7A012B06D1064B9B7A64
:101F9000022B05D16FF0030070474FF0FF30704700
:101FA0004FF0FF30704700BFAC000030014B586964
:101FB000704700BFAC000030014B186A704700BF8B
:101FC000AC00003008B50248FFF7C4FF08BD00BFF1
:101FD000AC0000306FF0030070470020704708B578
:101FE000C37A012B0ED1837A022B0ED181B192B12B
:101FF000C1600261002343610978006800F0CBF9F9
:1020000060B908BD4FF0FF30FBE74FF0FF30F8E755
:102010006FF00400F5E76FF00400F2E74FF0FF30D7
:10202000EFE7000008B50A4601460248FFF7D7FF70
:1020300008BD00BFAC000030C37A012B4FD110B5F2
:102040000C46837A022B4DD1CBB2013B182B4CD8D6
:10205000DFE803F0294B4B4B4B4B4B4B4B4B4B4B64
:102060004B4B4B4B4B4B4B4B0D1B4B31400042B141
:10207000012A3DD1006800F0F0F900B34FF0FF30C5
:1020800027E0006800F0F8F919E042B1012A32D1E6
:10209000006800F0FDF990B14FF0FF3019E00068E2
:1020A00000F005FA0BE01146006800F04FF930B17E
:1020B0006FF007000DE00023C3604361036114F477
:1020C000E06F1BD114F4405F1BD114F4404F1BD1BF
:1020D000002010BD002383610362C361EFE74FF06E
:1020E000FF3070474FF0FF30F3E76FF00300F0E789
:1020F0006FF00400EDE76FF00400EAE76FF0030013
:10210000E7E76FF00900E4E76FF00A00E1E700009D
:1021100008B50A4601460248FFF78EFF08BD00BF1A
:10212000AC000030C37A012B1DD170B582B00446DB
:102130000E461546837A022B18D1D1B1E2B10023A5
:102140008DF8073004E00DF10701206800F017F961
:10215000206800F061F90128F5D0A661E561002052
:10216000206202B070BD4FF0FF3070474FF0FF307B
:10217000F7E76FF00400F4E76FF00400F1E7000008
:1021800008B50A4601460248FFF7CCFF08BD00BF6C
:10219000AC000030C37A012B54D110B5044601299C
:1021A00053D002291AD011B14FF0FF3010BD006892
:1021B00000F026F9206800F008F9206800F077F9AF
:1021C000206800F059F994F90800FFF7AFFE94F980
:1021D0000900FFF7ABFE0020A072E7E7837A022B2D
:1021E00036D01C4B1968006800F092F894F908305A
:1021F000002B08DB03F01F015B0901228A406033DA
:10220000154941F8232094F90930002B08DB03F02D
:102210001F015B0901228A4060330F4941F82320E6
:1022200094F90800FFF774FE94F90900FFF770FEB7
:10223000206800F0D6F8206800F0B8F80223A372F6
:102240000020B3E74FF0FF3070476FF00300ADE7B9
:102250000020ABE7D000003000E100E008B5014607
:102260000148FFF797FF08BDAC00003010B5044CE3
:1022700000212046FFF78EFF00206060E07210BD55
:10228000AC00003010B582B0114C0021206800F085
:10229000CEF8A3696BB10E4C216A1944206800F096
:1022A0006EF8236A01332362E269934207D002B0D9
:1022B00010BD0DF10701206800F061F8F7E700227A
:1022C000A2616368002BF2D002209847EFE700BFBD
:1022D000AC00003010B50D4C0121206800F0A7F8CB
:1022E000E16889B16369013363612269934206D170
:1022F0000022E26063683BB10120984704E0C95CBA
:10230000024B186800F047F810BD00BFAC00003069
:1023100003681B680A46B9B141684A6001684268AF
:10232000496891604268526801684968B2FBF1F2FD
:102330001A619A6822F003029A600322DA60436805
:1023400001221A60002070470120704730B40368F2
:102350001D6871B14268136813F0010F0BD0536808
:10236000B3FBF1F30F2B08D991602B61002030BC37
:1023700070470220FBE70320F9E70220F7E7036834
:102380001B685A6812F0020F03D01B680B70002004
:1023900070470420704703681B685A6812F0010FE9
:1023A00002D11960002070470420704703681A6842
:1023B00043681B6813F0010F05D0936843F00403D2
:1023C0009360002070470320704703681B684268D1
:1023D000126812F0010F03D09A6822F004029A608A
:1023E000704703681A6843681B6813F0010F05D033
:1023F000936843F008039360002070470320704700
:1024000003681B684268126812F0010F03D09A68D3
:1024100022F008029A60704703681A6843681868D7
:1024200010F0010002D0506800F00200704703680D
:102430001A6843681B6813F0010F04D0012906D005
:10244000022907D001B170470223D36070470123EE
:10245000D36070470323D360F5E703681A684368C5
:102460001B6813F0010F05D0936843F001039360DC
:10247000002070470320704703681B684268126899
:1024800012F0010F03D09A6822F001029A6070479F
:1024900003681A6843681B6813F0010F05D093683E
:1024A00043F00203936000207047032070470368E5
:1024B0001B684268126812F0010F03D09A6822F07C
:1024C00002029A607047000010B5114B9B68002013
:1024D000984780B90E4B1B690220984770B90C4B86
:1024E0009C6A4FF4E1310120A04750B90121162028
:1024F000A04748B910BD4FF0FF30FBE74FF0FF3069
:10250000F8E74FF0FF30F5E74FF0FF30F2E700BF9C
:102510006038001010B582B004468DF80400084BF6
:102520005B69012101A8984738B9054B1B6A984798
:102530000128FAD1204602B010BD4FF0FF34F9E770
:102540006038001000B583B0094B9B69012101A8D8
:10255000984748B9064B5B6A98470128FAD19DF81D
:10256000040003B05DF804FB4FF0FF30F9E700BF53
:1025700060380010FEE7FEE7FEE7FEE7FEE7FEE755
:10258000FEE7FEE7FEE7FEE7FEE7FEE7FEE7FEE723
:10259000FEE7FEE7FEE7FEE7FEE7FEE7FEE7FEE713
:1025A000FEE7FEE7FEE7FEE7FEE7FEE7FEE7FEE703
:1025B000FEE7FEE7FEE7FEE7FEE7FEE7FEE7FEE7F3
:1025C000FEE7FEE7FEE7FEE7FEE7FEE7FEE7FEE7E3
:1025D000FEE7FEE7FEE7FEE7FEE7FEE7FEE7FEE7D3
:1025E000FEE7FEE7FEE7FEE7FEE7FEE7FEE7FEE7C3
:1025F000FEE7FEE7FEE7FEE7FEE7FEE7FEE7FEE7B3
:10260000FEE7FEE7FEE7FEE7FEE7FEE7FEE7FEE7A2
:10261000FEE7FEE7FEE7FEE7FEE7FEE7FEE7FEE792
:10262000FEE7FEE7FEE7FEE7FEE7FEE7FEE7FEE782
:10263000FEE7FEE7FEE7FEE7FEE7FEE7FEE7FEE772
:10264000FEE7FEE7FEE7FEE7FEE7FEE708B5174B0D
:1026500083F30988164B83F30A8883F30B8800F011
:1026600031F8144A0AE01068516850F8230041F824
:102670002300013391688B42F5D30C320E4B9A4202
:1026800001D20023F6E70D4A08E01168002041F866
:102690002300013351688B42F7D30832084B9A422A
:1026A00001D20023F6E7FDF71DFE00BF0000023057
:1026B00000FE0130EC380010F8380010F838001037
:1026C000F838001010B485B02E4B2F4A9A60D3F81A
:1026D000882042F47002C3F888202C4A116821F047
:1026E00030011160116841F0100111605A6942F423
:1026F00000225A61BFF34F8FBFF36F8FBFF34F8F2D
:10270000BFF36F8F5A6922F400325A610022C3F876
:102710005022BFF34F8FBFF36F8FC3F88420BFF3F6
:102720004F8F5A6922F480325A61BFF34F8FD3F82A
:1027300080400194C4F34E330293C4F3C90303935E
:10274000029943F6E07303EA4113039A43EA827362
:102750000C48C0F87432531E0393002AF0D14B1E6C
:1027600002930029E9D1BFF34F8FBFF36F8F084B5E
:10277000084A1A60084B094A1A6005B05DF8044B14
:10278000704700BF00ED00E00000001000E301E032
:10279000D40000300048E801D000003040787D01CE
:1027A00008B509E0042000F047FA084A136801332D
:1027B00013606420FDF7F8FE044C2168044800F023
:1027C00053F82368632BEDDCEFE700BFD8860030B9
:1027D0009C38001008B5002211460248FFF78CFA19
:1027E00008BD00BFA127001008B5FFF76DFEFEF77A
:1027F00059F8FFF7EFFFFEF771F8FEE708B5064B53
:10280000044613B10021AFF30080044B1B6803B1F1
:1028100098472046FDF79AFE00000000148800301B
:1028200070B50D4D00260D4C641BA410A64209D1B5
:102830000B4D00260B4C00F077FF641BA410A64242
:1028400005D170BD55F8043B01369847EEE755F8C1
:10285000043B01369847F2E7340100303401003080
:1028600034010030380100300FB407B5064904AB1D
:10287000086853F8042B8168019300F031F803B025
:102880005DF804EB04B07047D80000309368013B5A
:10289000002B936010B408DA9469A34201DB0A2983
:1028A00003D15DF8044B00F033B91368581C106075
:1028B000084619705DF8044B7047F8B506460F4698
:1028C0001446D518AC4201D1002007E03A4614F86E
:1028D000011B3046FFF7DAFF431CF3D1F8BD0000BF
:1028E0002DE9F04F0D469DB014469846064618B1A6
:1028F000036A0BB900F098FC6B6ED90705D4AB895D
:102900009A0502D4A86D00F074FDAB891B0701D5B0
:102910002B699BB92946304600F038F970B16B6ECF
:10292000DC0704D54FF0FF301DB0BDE8F08FAB8958
:102930009805F7D4A86D00F05DFDF3E70023CDF80E
:102940000C804FF00109DFF8B481099320238DF842
:10295000293030238DF82A3023469A4613F8012B6C
:102960000AB1252AF9D1BAEB040B0BD05B462246FB
:1029700029463046FFF7A1FF013000F0A780099AF1
:102980005A4409929AF80030002B00F09F800023EF
:102990004FF0FF320AF1010A049307938DF8533088
:1029A0001A93CDE9052354460522544814F8011B17
:1029B00000F093FB049AD8B9D10644BF20238DF8C8
:1029C0005330130744BF2B238DF853309AF800304F
:1029D0002A2B15D0079A544600204FF00A0C2146A6
:1029E00011F8013B303B092B4BD9B0B1079214E0F1
:1029F000A0EB0803A24609FA03F313430493D2E7BA
:102A0000039B191D1B68002B0391BBBF5B4242F067
:102A1000020207930793B8BF049223782E2B0AD1A2
:102A200063782A2B32D1039B02341A1D1B6843EAB8
:102A3000E37303920593DFF8D4A003222178504674
:102A400000F04BFB38B1A0EB0A004022049B01349C
:102A500082401343049314F8011B062228488DF882
:102A6000281000F03AFB00283FD0264B1BBB039BED
:102A7000073323F0070308330393099B3B4409936F
:102A80006AE70CFB02320C460120A8E70023013460
:102A90004FF00A0C19460593204610F8012B303AE6
:102AA000092A03D9002BC6D00591C4E70CFB0121EC
:102AB00004460123F0E703AB2A4604A930460093FD
:102AC000114BAFF300800746781CD6D16B6ED90747
:102AD00005D4AB899A0502D4A86D00F08BFCAB89B4
:102AE0005B063FF51FAF09981EE703AB2A4604A912
:102AF00030460093044B00F019F9E4E7AA380010BF
:102B0000B438001000000000BB280010B0380010DE
:102B1000F8B50E461446054618B1036A0BB900F025
:102B200083FBA369A360A3891A0701D5236943B96D
:102B30002146284600F02AF818B14FF0FF373846F2
:102B4000F8BD2368F6B222693746981A6369834252
:102B500005DC2146284600F098FA0028EDD1A3684C
:102B6000013BA36023685A1C22601E70431C6269EB
:102B70009A4204D0A389DB07E1D50A2EDFD1214692
:102B8000284600F082FA0028D9D0D6E738B5294B7C
:102B900005460C46186818B1036A0BB900F044FBEF
:102BA000B4F90C30190722D4DA0607D409222A60B6
:102BB00043F040034FF0FF30A38133E0580712D5B4
:102BC000616B41B104F14403994202D0284600F000
:102BD000C5FB00236363A38923F02403A38100239F
:102BE000636023692360A38943F00803A3812369F9
:102BF0004BB9A38903F42073B3F5007F03D02146BA
:102C0000284600F01DFCB4F90C3013F001020AD084
:102C10000022A26062695242A261226942B913F0A5
:102C20008000C5D138BD990758BF6269A260F4E73A
:102C30000020F7E7D8000030024B01461868826890
:102C400000F03ABCD80000302DE9F047164698460F
:102C50008A6807460B690C46DDF820909342B8BF9E
:102C60001346336091F843200AB10133336023687F
:102C7000990642BF336802333360256815F00605B4
:102C800006D104F1190AE36832689B1AAB422BDCC7
:102C900094F843302268003B18BF0123920630D4D9
:102CA00004F1430241463846C847013023D0236827
:102CB0001A3454F80A2C03F00603042B0ABF54F804
:102CC0000E5C002533684FF0000608BFED1A54F87B
:102CD000123C08BF25EAE5759342C4BF9B1AED1864
:102CE000B5421AD1002008E0012352464146384639
:102CF000C847013003D14FF0FF30BDE8F087013500
:102D0000C1E7E1185A1C30200233224481F8430005
:102D100094F8451082F84310C2E701232246414649
:102D20003846C8470130E6D00136D9E72DE9FF47DC
:102D30000F7E914680460C46782F9A460C9E01F1F4
:102D4000430207D8622F0AD8002F00F0DD80582FE9
:102D500000F0C38004F1420684F842703AE0A7F123
:102D60006303152BF6D801A151F823F0C52D0010EF
:102D7000D92D0010552D0010552D0010552D001087
:102D8000552D0010D92D0010552D0010552D001077
:102D9000552D0010552D0010EF2E0010672E00103D
:102DA000A72E0010552D0010552D0010112F0010CA
:102DB000552D0010672E0010552D0010552D0010B8
:102DC000AF2E001033681A1D1B68326004F14206F2
:102DD00084F842300123A8E031682368081D306080
:102DE0001E0601D50D6803E05D06FBD5B1F9005064
:102DF000002D616878DA2D200029A16084F8430055
:102E00002DDA6D425D480A231646B5FBF3F103FB4C
:102E10001157C75D06F8017D2F460D46BB42F4D918
:102E2000082B0BD12368DF0708D523696168994215
:102E3000DEBF302306F8013C06F1FF36921B22610B
:102E40004B4603AA21464046CDF800A0FFF7FCFE02
:102E500001306FD14FF0FF3004B0BDE8F08723F0B0
:102E600004032360CDE721683368080653F8045B48
:102E700002D4490648BFADB26F2F33603F4814BF3C
:102E80000A230823002184F843106668002EA660F8
:102E9000BADB216821F004012160002DB4D1002E9D
:102EA000B2D11646BCE7236843F02003236078279D
:102EB0003348236884F845701F06316851F8045B75
:102EC00002D45F0648BFADB23160D90744BF43F0BA
:102ED000200323601DB11023D4E72848E9E72368C5
:102EE00023F020032360F6E724480A23CDE7336864
:102EF0002568181D616930602E061B6801D51960B0
:102F000002E06806FBD5198000231646236197E787
:102F1000336800211A1D32601E686268304600F076
:102F2000DCF808B1801B606063682361002384F8CB
:102F3000433085E72369324649464046D047013051
:102F400088D023689B0714D4E068039B9842B8BFDD
:102F5000184681E70123324649464046D0470130B2
:102F60003FF478AF0135E36803995B1AAB42F1DCBB
:102F7000EAE7002504F11906F5E700BFBB380010A9
:102F8000CC380010B1F90C202DE9F04117070546A7
:102F90000C4656D44B68002B02DC0B6C002B3DDD3D
:102FA000E66A002E3AD0002312F480522F68216A7C
:102FB0002B6025D0626DA389580705D56368D21AA6
:102FC000636B0BB1236CD21A216A0023E66A284690
:102FD000B047411C24D00023636023692360A38988
:102FE000DA0400D56065616B2F60B9B104F1440368
:102FF000994202D0284600F0B1F9002363630DE046
:1030000001232846B047461C0246D4D12B68002B2A
:10301000D1D01D2B01D0162B2AD12F6000202EE0FD
:103020002A68B4F90C3042B11D2A01D0162A21D1E8
:103030000023636023692360D5E762602269226010
:10304000CEE70F69002FE9D093070E680F600CBF21
:103050004B690023A6EB07088B60B8F1000FDDDD9C
:1030600043463A46216A2846A66AB047002808DC4B
:10307000B4F90C3043F040034FF0FF30A381BDE8BA
:10308000F0810744A8EB0008E7E738B50B6905466F
:103090000C4613B90025284638BD18B1036A0BB990
:1030A00000F0C2F8B4F90C30002BF3D0626ED007F8
:1030B00004D4990502D4A06D00F09BF9284621465E
:1030C000FFF760FF636E0546DA07E4D4A3899B052A
:1030D000E1D4A06D00F08EF9DDE7C9B203460244E9
:1030E00010B59342184601D1002003E00478013363
:1030F0008C42F6D110BD0A44431E914200D1704764
:1031000010B511F8014B914203F8014FF9D110BDF0
:10311000002310B504468360818119464366C2814D
:1031200008228361C0E90033C0E904335C3000F059
:103130000DF90D4B246263620C4BA3620C4BE362EE
:103140000C4B23630C4B9C4206D003F16802944263
:1031500002D0D0339C4205D104F15800BDE81040A4
:1031600000F046B910BD00BF593200107B3200108C
:10317000B3320010D7320010DC860030024A034917
:10318000034800F0C5B800BF280100308B300010A4
:10319000DC00003041680C4B994210B5044601D068
:1031A000FFF773FFA168094B994202D02046FFF751
:1031B0006CFFE168064B994204D02046BDE8104000
:1031C000FFF763BF10BD00BFDC86003044870030CE
:1031D000AC87003010B50B4B04210B4C0B4A20463A
:1031E0001A600022FFF794FF04F168000122092110
:1031F000FFF78EFF04F1D00002221221BDE810403B
:10320000FFF786BF14880030DC8600307D31001067
:10321000014800F0EEB800BF19880030014800F006
:10322000E9B800BF1988003010B50446FFF7F0FF79
:10323000236A1BB1BDE81040FFF7F0BF044B2362C7
:10324000044B1B68002BF5D1FFF7C4FFF2E700BF6A
:10325000953100101488003010B50C46B1F90E10ED
:1032600000F044FA0028ABBF636DA3891B1823F458
:103270008053ACBF6365A38110BD2DE9F0411F46AB
:103280008B8905460C46DB05164605D50223002230
:10329000B1F90E1000F018FAA3893246B4F90E10F5
:1032A000284623F48053A3813B46BDE8F04100F05B
:1032B00017B810B50C46B1F90E1000F005FA431C12
:1032C000A38915BF606523F4805343F48053A38121
:1032D00018BFA38110BDB1F90E1000F021B9000094
:1032E00038B50446064D0846114600222A601A46A3
:1032F000FDF7C0F8431C02D12B6803B1236038BD31
:103300001C880030014B1868704700BFD80000309F
:103310002DE9F8430746884614460026D4E901956E
:10332000B9F1010905D52468002CF7D13046BDE874
:10333000F883AB89012B07D9B5F90E30013303D0DF
:1033400029463846C04706436835E9E70244034644
:10335000934200D1704703F8011BF9E738B50546E1
:10336000002941D051F8043C0C1F002BB8BFE418D1
:1033700000F0CEF91D4A136833B963601460284623
:10338000BDE8384000F0CAB9A34208D92068211826
:103390008B4201BF19685B6809182160EDE71A4686
:1033A0005B680BB1A342FAD911685018A0420BD147
:1033B00020680144501811608342E0D118685B68AE
:1033C000084453601060DAE702D90C232B60D6E77B
:1033D000206821188B4202BF19685B680918636076
:1033E00008BF21605460CAE738BD00BF24880030A0
:1033F00070477047704770B50C46B1F90E1096B023
:10340000154600291E460CDAA389002113F0800F0F
:1034100014BF40234FF48063002031602B6016B04E
:1034200070BD6A4600F02EF90028EDDB019901F429
:103430007041A1F50053594259414FF48063EBE7C5
:103440008B89F7B59D0706460C4607D504F147035F
:10345000236023610123636103B0F0BD01AB6A46C1
:10346000FFF7C9FF009F05463046394600F08AF84D
:1034700048B9B4F90C309A05EED423F0030343F0B5
:103480000203A381E2E7A389206043F08003A381C4
:10349000019BC4E904075BB1B4F90E10304600F09B
:1034A00003F928B1A38923F0030343F00103A381A7
:1034B000A3891D43A581CFE770B50D461446064686
:1034C00018B1036A0BB9FFF7AFFE636ED80705D4D6
:1034D000A389990502D4A06DFFF78BFFA368013B78
:1034E000002BA36005DAA269934212DBEBB20A2B30
:1034F0000FD023685A1C22601D70EDB2636EDA078C
:1035000005D4A3899B0502D4A06DFFF773FF28465D
:1035100070BD294622463046FFF7FAFA0546EDE728
:1035200038B50023054D044608462B60FCF796FF8E
:10353000431C02D12B6803B1236038BD1C880030C6
:1035400070B50F4E0C460546316811B9FDF700F80D
:10355000306021462846FCF7FBFF431C03D14FF0A7
:10356000FF34204670BDC41C24F00304A042F8D0F0
:10357000211A2846FCF7ECFF0130F2D1EFE700BF3B
:10358000208800302DE9F843CD1C064625F00305C0
:1035900008350C2D38BF0C25002D01DBA94204D9BC
:1035A0000C2333600020BDE8F883DFF8D48000F0FE
:1035B000AFF8D8F800301C4644BB29463046FFF728
:1035C000BFFF431C044658D1D8F800402746002FBF
:1035D00043D1002C4BD023683946304604EB030915
:1035E000FCF7B6FF814542D1216830466D1A294665
:1035F000FFF7A6FF01303AD023682B442360D8F8A8
:1036000000305A6862BBC8F800700FE02268521B95
:1036100020D40B2A17D96119A342256018BF59601D
:10362000636808BFC8F8001062514B60304600F074
:1036300075F804F10B00231D20F00700C21A1CBF0F
:103640001B1AA350AFE76268A3420CBFC8F8002062
:103650005A60EBE723466468AEE73C467F68B6E70E
:103660001A465B68A342FBD100235360DEE70C23BC
:103670003046336000F052F894E70560D6E700BFAB
:103680002488003038B50023064D0446084611460C
:103690002B60FCF740FF431C02D12B6803B1236071
:1036A00038BD00BF1C88003038B50023054D0446E6
:1036B00008462B60FCF71CFF431C02D12B6803B1AA
:1036C000236038BD1C88003038B50446064D0846D6
:1036D000114600222A601A46FCF710FF431C02D153
:1036E0002B6803B1236038BD1C88003038B5044610
:1036F000064D0846114600222A601A46FCF7DCFEF9
:10370000431C02D12B6803B1236038BD1C880030F4
:103710000148FFF76EBE00BF188800300148FFF770
:1037200069BE00BF18880030F8B500BFF8BC08BCFF
:103730009E467047F8B500BFF8BC08BC9E4670476F
:103740005254582056352E392E300000000000000B
:103750000000000000000000000000000000000069
:103760000000000000000000000000000000000059
:103770000000000000000000000000000000000049
:103780000000000003000000E80300000500000046
:10379000880600301000000000000000000000005B
:1037A0000000000000000000000000000000000019
:1037B000C80600300080000000000000000000008B
:1037C00000000000000000000000000000000000F9
:1037D0000000000000000000000C00003438001061
:1037E00010380010411E0010211E0010F837001084
:1037F00004000000000000000000000000000000C5
:10380000B0010030340000006001003050000000C2
:103810000000000000000000E8030030500000003D
:10382000E801003000020000280000000000000055
:10383000000000000000000000000000380400301C
:103840005000000088040030000200000100000069
:1038500000000000000000000030305900C20100EC
:10386000ED1E0010511F0010751F00106D2200107A
:103870005D2200102520001081210010851F0010FE
:10388000AD1F0010B91F001011210010C51F00103E
:10389000D51F0010DB1F00100402000358696E20C2
:1038A0006368616F2025640D0A00232D302B2000F2
:1038B000686C4C00656667454647003031323334EA
:1038C000353637383941424344454600303132338A
:1038D000343536373839616263646566000000004C
:0438E00000000000E4
:0838E400F8C9FF7F010000009C
:0C38EC00F8380010000000304F00000011
:1038F800403700101050FC020000000000000000DB
:1039080000000000000000000000000000000000AF
:10391800000000000000000000000000000000009F
:10392800000000000000000000000000000000008F
:10393800000000000000000000000000000000007F
:10394800000000000000000000000000000000006F
:10395800000000000000000000000000000000005F
:10396800000000000000000000000000000000004F
:10397800000000000000000000000000000000003F
:10398800000000000000000000000000000000002F
:103998000000000058380010CC860030A400003029
:1039A80000000000212200000000000000000000CC
:1039B80000000000000000000000000000000000FF
:1039C80040787D010048E801DC000030000000007C
:1039D800DC86003044870030AC87003000000000EF
:1039E80000000000000000000000000000000000CF
:1039F80000000000000000000000000000000000BF
:103A080000000000000000000000000000000000AE
:103A1800000000000000000000000000030000009B
:0C3A2800DC860030B90200109102001092
:040000051000264D74
:00000001FF
